:020000040800F2
:10000000686C0120F903000833910008898C00080E
:100010002F910008C97D0008CF990008000000005A
:10002000000000000000000000000000390300088C
:10003000A98B0008000000009503000851940008F7
:100040001304000813040008130400081304000834
:100050001304000813040008130400081304000824
:100060001304000813040008130400081304000814
:100070001304000813040008130400081304000804
:100080001304000813040008130400088D7F0008FF
:10009000CD7D0008130400081304000813040008B1
:1000A00013040008130400081304000813040008D4
:1000B00013040008130400081304000813040008C4
:1000C00013040008130400081304000813040008B4
:1000D000130400081304000813040008BD96000868
:1000E0001304000813040008130400081304000894
:1000F0001304000813040008130400081304000884
:100100001304000813040008130400081304000873
:100110001304000813040008130400081304000863
:100120001304000813040008130400081304000853
:100130001304000813040008130400081304000843
:1001400013040008A97F0008130400081304000822
:100150002587000813040008558800087D970008CB
:100160001304000813040008130400081304000813
:100170001304000813040008130400080000000022
:1001800013040008130400081304000813040008F3
:1001900013040008130400081304000813040008E3
:1001A00000000000000000001304000800F002F846
:1001B00000F0B2F80AA090E8000C82448344AAF14F
:1001C0000107DA4501D100F0A7F8AFF2090EBAE84D
:1001D0000F0013F0010F18BFFB1A43F0010318477B
:1001E000D44F0100F44F01000A444FF0000C10F806
:1001F000013B13F0070408BF10F8014B1D1108BFA5
:1002000010F8015B641E05D010F8016B641E01F844
:10021000016BF9D113F0080F1EBF10F8014BAD1C94
:100220000C1B09D16D1E58BF01F801CBFAD505E0B2
:1002300014F8016B01F8016B6D1EF9D59142D6D30C
:10024000704700000023002400250026103A28BF34
:1002500078C1FBD8520728BF30C148BF0B60704738
:100260006E2906F01A80702905F0FD84662913F0C6
:100270007E86652913F07B86672913F078866129CD
:1002800013F0778603681B0A28BF41F080016929B3
:1002900005F06E84642905F06B84752905F0688487
:1002A0006F2906F00A83782905F0C984E92906F048
:1002B000A582E42906F0A282F52906F09F82EF29A3
:1002C00006F00783F82905F0C8840368DB0928BF16
:1002D00041F08001632906F01D85732906F022850F
:1002E000E32906F02D85F32906F0328500207047BA
:1002F0001FB513F0EEFD06F0F7FA04000020002110
:1003000012F01EFF401C60600020002112F002FF6E
:10031000E0601FBD10B510BD06F0B8FD1146FFF737
:10032000E7FF0FF0F1F806F0DFFD03B4FFF7F2FF8F
:1003300003BC0BF0DAFA00002C4B19680868B0E82F
:10034000F04F80F30988BFF36F8F4FF0000080F308
:10035000118870470000000008480068006880F3BA
:1003600008884FF0000080F3148862B661B6BFF3CE
:100370004F8FBFF36F8F00DF00BF00BF08ED00E0BD
:10038000DFF80C00016841F470010160704700BFA4
:1003900088ED00E0EFF30980BFF36F8F134B1A680D
:1003A0001EF0100F08BF20ED108A20E9F04F1060FA
:1003B00009B44FF0500080F31188BFF34F8FBFF3A3
:1003C0006F8F12F045F84FF0000080F3118809BCE0
:1003D00019680868B0E8F04F1EF0100F08BFB0ECC5
:1003E000108A80F30988BFF36F8F704738000020B0
:1003F000EFF305807047000009488047094800472F
:10040000FEE7FEE7FEE7FEE7FEE7FEE7FEE7FEE7C4
:10041000FEE7FEE704480549054A064B7047000021
:1004200061940008AD01000868580120686C012043
:100430006868012068680120FE4880ED3A0A70472C
:100440002DE9F047DFF8EC9300262DED0A8B0446EA
:10045000B0EE408AF0EE608A884635463746D9F8D5
:10046000AC0013F038F953EC182B13F05FF96FD38D
:10047000D9F8B00013F02FF953EC182B13F090FAC1
:10048000F5D3B4F90000B4F90610401A13F023F9BB
:1004900053EC182B13F04AF900D20126B4F90E00E0
:1004A000B4F91410401A13F016F953EC182B13F08A
:1004B0003DF900D2761CB4F91C00B4F92210401AA0
:1004C00013F009F953EC182B13F030F900D2761C15
:1004D0009FEDD90B012E3BDC53EC102B51EC180B8C
:1004E00013F060F98946064649EC180BB4F9000090
:1004F000B4F90610401A13F0EEF853EC182B13F071
:100500004FFA00D20125B4F90E00B4F9141049ECE9
:10051000186B401A13F0DFF853EC182B13F040FA65
:1005200000D26D1CB4F91C00B4F9221049EC186B10
:10053000401A13F0D0F853EC182B13F031FA00D214
:100540006D1C002D05DD0220BDEC0A8BBDE8F08797
:1005500065E000269FEDBACB06EB460904EB890562
:10056000B5F90A0013F0B7F898ED048B53EC182B8B
:1005700013F024FB41EC190BB5F9040013F0ABF8B0
:1005800053EC182B13F01AFB53EC192B13F00AF948
:1005900041EC190BB5F9080013F09DF898ED028BAA
:1005A00053EC182B13F00AFB41EC1A0BB5F90200BF
:1005B00013F091F853EC182B13F000FB53EC1A2BAB
:1005C00013F0F0F841EC1A0BB5F9060013F083F8BC
:1005D00098ED008B53EC182B13F0F0FA41EC1B0B49
:1005E00034F9290013F077F853EC182B13F0E6FADE
:1005F00053EC1B2B13F0D6F853EC1A2B12F0F4FD2E
:1006000053EC192B12F0F0FD53EC1C2B13F08EF869
:1006100000D27F1C761C032E9EDB022F01DA012004
:1006200092E7002090E788490A684B68D00180EA89
:10063000D20080EA031048608B68520380EAC3034B
:1006400082EA5312520282EAD0208B60086070471F
:1006500010B52DED048BF0EE408AFFF7E4FF00EEBD
:10066000100AB8EE400ADFED790A20EE200A9FED6D
:10067000789A20EE090A0AF06BF8B0EE408AFFF78C
:10068000D2FF00EE100AB8EE400A20EE090AB5EEDD
:10069000C00AF1EE10FA01D1B7EE000A10EE100A0E
:1006A00013F076FB41EC100B0AF006F99FED691B85
:1006B00051EC100B53EC112B13F074F812F062FD97
:1006C00000EE100A0AF0DFFB20EE280A20EE080AEE
:1006D000BDEC048B10BD2DE9F04105462DED048BDA
:1006E000B0EE608AF0EE408A0F4618EE100A13F062
:1006F0004FFB97ED301B53EC112B13F053F841ECEB
:10070000190B18EE900A13F043FB95ED301B53ECD8
:10071000112B13F047F853EC192B12F065FD002450
:10072000C5E9300118EE100A13F032FB07EBC408DC
:1007300098ED001B53EC112B13F034F841EC190B1E
:1007400018EE900A13F024FB05EBC40696ED001B8F
:1007500053EC112B13F026F853EC192B12F044FD37
:10076000C6E9000118EE100A13F012FB98ED241BE5
:1007700053EC112B13F016F841EC190B18EE900AFC
:1007800013F006FB96ED241B53EC112B13F00AF823
:1007900053EC192B12F028FD641CC6E92401062C29
:1007A000C0DB002418EE100A13F0F2FA41EC100B33
:1007B00007EBC40090ED121B51EC100B53EC112B06
:1007C00012F0F0FF41EC190B18EE900A13F0E0FA6A
:1007D00005EBC40696ED121B53EC112B12F0E2FF51
:1007E00053EC192B12F000FD641CC6E91201092C10
:1007F000D8DB002418EE100A13F0CAFA41EC100BF3
:1008000007EBC40090ED0C1B51EC100B53EC112BBB
:1008100012F0C8FF41EC190B18EE900A13F0B8FA69
:1008200005EBC40696ED0C1B53EC112B12F0BAFF2E
:1008300014E00000E84A012000000000000004402D
:10084000000000000000000038020020DB0FC9405B
:100850000000802F00000000000000C053EC192BA6
:1008600012F0C2FC641CC6E90C01032CC2DBBDEC17
:10087000048BBDE8F0812DE9F04F04462DED068B89
:1008800083B00D46086812F026FF41EC1A0B686829
:1008900012F021FF41EC190BA86812F01CFF41EC8B
:1008A000180B94ED300B9FEDFE1B51EC100B53EC2D
:1008B000112B12F099FCC4E9300194ED0C0B53ECB0
:1008C0001A2B51EC100B12F08FFCC4E90C0194EDC3
:1008D0000E0B53EC192B51EC100B12F085FCC4E9F4
:1008E0000E0194ED100B53EC182B51EC100B12F081
:1008F0007BFCC4E9100153EC1A2B51EC1A0B12F0DB
:1009000051FF029194ED001B064653EC112B12F09F
:100910006BFCC4E9000153EC192B51EC1A0B12F0DB
:1009200041FF894649EC100B94ED021B054653EC40
:10093000112B51EC100B12F057FCC4E9020153ECDF
:10094000182B51EC1A0B12F02DFF8B464BEC100BB1
:1009500094ED041B804653EC112B51EC100B12F05C
:1009600043FCC4E9040153EC192B51EC190B12F0B0
:1009700019FF019194ED061B074653EC112B12F061
:1009800033FCC4E9060153EC182B51EC190B12F09F
:1009900009FF009194ED081B824653EC112B12F0D5
:1009A00023FCC4E9080153EC182B51EC180B12F08E
:1009B000F9FE94ED0A1B53EC112B12F015FCC4E95F
:1009C0000A01029953EC1A2B41EC106B51EC100BFD
:1009D00012F0E8FE94ED121B53EC112B12F004FC04
:1009E00049EC105BC4E9120153EC192B51EC100BCC
:1009F00012F0D8FE94ED141B53EC112B12F0F4FB03
:100A00004BEC108BC4E9140153EC182B51EC100B78
:100A100012F0C8FE94ED161B53EC112B12F0E4FB00
:100A200049EC105BC4E9160153EC1A2B51EC100B86
:100A300012F0B8FE94ED181B53EC112B12F0D4FBFE
:100A4000C4E91801019953EC192B41EC107B51ECCE
:100A5000100B12F0A7FE94ED1A1B53EC112B12F0A1
:100A6000C3FBC4E91A010099554641EC10AB0E4690
:100A700053EC182B51EC100B12F094FE94ED1C1B50
:100A800053EC112B12F0B0FBC4E91C0153EC1A2BF0
:100A900051EC180B12F086FE53EC1A2B12F082FE6A
:100AA00094ED1E1B53EC112B12F09EFB46EC105BD9
:100AB000C4E91E0153EC192B51EC100B12F072FE1D
:100AC00094ED201B53EC112B12F08EFBC4E9200196
:100AD00053EC182B51EC180B12F064FE894649ECCC
:100AE000100B074653EC182B51EC100B12F05AFE6A
:100AF00094ED221B53EC112B12F076FBC4E922017A
:100B000053EC1A2B51EC1A0B12F04CFE884648ECB1
:100B1000100B054653EC1A2B51EC100B12F042FE51
:100B200053EC1A2B12F03EFE94ED241B53EC112BC8
:100B300012F05AFBC4E9240153EC192B51EC190BA8
:100B400012F030FE8A464AEC100B064653EC192B85
:100B500051EC100B12F026FE53EC192B12F022FE72
:100B600094ED261B53EC112B12F03EFB49EC107B4D
:100B7000C4E9260153EC182B51EC100B12F012FEB5
:100B800053EC182B12F00EFE94ED281B53EC112B96
:100B900012F02AFB48EC105BC4E9280153EC192B36
:100BA00051EC100B12F0FEFD53EC192B12F0FAFD74
:100BB00094ED2A1B53EC112B12F016FB48EC105B42
:100BC000C4E92A0153EC182B51EC100B12F0EAFD8A
:100BD00053EC182B12F0E6FD94ED2C1B53EC112B6B
:100BE00012F002FB4AEC106BC4E92C0153EC182BF9
:100BF00051EC100B12F0D6FD53EC182B12F0D2FD75
:100C000094ED2E1B53EC112B12F0EEFAC4E92E01D9
:100C100003B0BDEC068BBDE8F08F2DE9F04F934695
:100C20002DED108B0D46044693B090ED0CEB53EC7C
:100C30001E2B51EC1E0B12F0B5FD94ED000B41EC98
:100C4000190B8DED080B94ED308B53EC102B51EC00
:100C5000180B12F0A7FD53EC192B12F0AFFF94ED17
:100C60000EDB41EC1F0B53EC1D2B51EC1D0B12F056
:100C700099FD94ED060B41EC190B8DED060B53EC31
:100C8000102B51EC180B12F08DFD53EC192B12F0B8
:100C900095FF41EC100B8DED040B94ED10CB03E0B0
:100CA000000000000000F03F53EC1C2B51EC1C0B2B
:100CB00012F078FD94ED0A0B41EC190B8DED020B4F
:100CC00053EC102B51EC180B12F06CFD53EC192B5C
:100CD00012F074FF41EC110B53EC1D2B8DED001B3A
:100CE00051EC1E0B12F05EFD94ED020B41EC190B62
:100CF00053EC102B51EC180B12F054FD53EC192B44
:100D000012F05CFF41EC1B0B53EC1C2B51EC1E0B47
:100D100012F048FD94ED040B41EC190B53EC102B31
:100D200051EC180B12F03EFD53EC192B12F046FF5C
:100D300041EC1A0B53EC1C2B51EC1D0B12F032FD45
:100D400094ED080B41EC190B53EC102B51EC180BE4
:100D500012F028FD53EC192B12F030FF9DED020B21
:100D600041EC190B53EC102B51EC1E0B12F01AFD39
:100D700041EC110B51EC180B8DED101B94ED160B83
:100D800053EC102B12F00EFD41EC110B51EC1E0B2D
:100D90008DED0E1B9DED060B53EC102B12F002FD9A
:100DA00041EC110B51EC180B8DED0C1B94ED140B59
:100DB00053EC102B12F0F6FC41EC110B51EC1E0B16
:100DC0008DED0A1B9DED080B53EC102B12F0EAFC85
:100DD00094ED120B41EC1E0B53EC102B51EC180B45
:100DE00012F0E0FC53EC1E2B12F0E8FE9DED0A1B06
:100DF00053EC112B12F0F8F99DED0C1B53EC112B59
:100E000012F0DCFE9DED0E1B53EC112B12F0ECF9F1
:100E10009DED101B53EC112B12F0D0FE9FEDFE1B2D
:100E200053EC112B12F0BEFC9DED020B41EC1E0B9E
:100E300053EC102B51EC1D0B12F0B4FC41EC110BD8
:100E400051EC180B8DED101B94ED1C0B53EC102B7B
:100E500012F0A8FC41EC110B51EC1D0B8DED0E1B9B
:100E60009DED060B53EC102B12F09CFC41EC110B8A
:100E700051EC180B8DED0C1B94ED1A0B53EC102B51
:100E800012F090FC41EC110B51EC1D0B8DED0A1B87
:100E90009DED080B53EC102B12F084FC94ED180B15
:100EA00041EC1D0B53EC102B51EC180B12F07AFC9B
:100EB00053EC1D2B12F082FE9DED0A1B53EC112BFF
:100EC00012F092F99DED0C1B53EC112B12F076FEF3
:100ED0009DED0E1B53EC112B12F086F99DED101BAE
:100EE00053EC112B12F06AFE9FEDCB1B53EC112B30
:100EF00012F058FC9DED020B41EC1D0B53EC102B36
:100F000051EC1C0B12F04EFC41EC110B51EC180B88
:100F10008DED021B94ED220B53EC102B12F042FCD2
:100F200041EC110B51EC1C0B8DED0A1B9DED060BDA
:100F300053EC102B12F036FC41EC110B51EC180B5A
:100F40008DED0C1B94ED200B53EC102B12F02AFCB2
:100F500041EC110B51EC1C0B8DED061B9DED080BAC
:100F600053EC102B12F01EFC94ED1E0B41EC1C0BED
:100F700053EC102B51EC180B12F014FC53EC1C2BFF
:100F800012F01CFE9DED061B53EC112B12F02CF9F8
:100F90009DED0C1B53EC112B12F010FE9DED0A1B66
:100FA00053EC112B12F020F99DED021B53EC112B89
:100FB00012F004FE9FED981B53EC112B12F0F2FB84
:100FC0009DED040B41EC180B53EC102B51EC1F0B57
:100FD00012F0E8FB10919DED001B824653EC112BA3
:100FE00012F0E0FB41EC110B53EC192B8DED0A1BB9
:100FF00051EC1F0B12F0D6FB53EC192B12F0D2FB65
:1010000041EC110B53EC1A2B8DED081B9DED040BDD
:1010100051EC100B12F0C6FB814653EC1A2B1191C8
:1010200012F0C0FB41EC110B8DED061B9FED7C0B0C
:1010300051EC1B0B53EC102B12F0B4FB53EC1A2B9E
:1010400012F0B0FB53EC192B12F0ACFB9DED001B22
:1010500041EC1C0B53EC1B2B51EC110B12F0A2FBBF
:10106000074653EC1B2B029112F09CFB53EC1C2BFC
:1010700012F0A4FD9DED061B53EC112B12F0B4F8F9
:101080009DED081B53EC112B12F0AEF89DED0A1BE1
:1010900053EC112B12F092FD41EC1C0B9FED620BF7
:1010A00053EC102B12F0ACFA7DD053EC192B51EC11
:1010B0001B0B12F077FB53EC182B12F073FB41EC77
:1010C000110B53EC1D2B8DED0E1B029941EC107B87
:1010D00051EC100B12F066FB41EC110B8DED0C1B6B
:1010E0009DED000B53EC102B9DED040B51EC100B00
:1010F00012F058FB53EC1E2B12F054FB41EC110B79
:1011000053EC192B8DED081B51EC190B12F04AFB17
:1011100053EC1E2B12F046FB41EC110B53EC1D2B34
:101120008DED0A1B51EC190B12F03CFB41EC110B3D
:1011300053EC182B8DED061B9DED040B51EC100BA1
:1011400012F030FB9DED061B53EC112B12F036FD17
:1011500053EC1A2B12F026FB9DED0A1B53EC112BBE
:1011600012F042F89DED081B53EC112B12F026FDF6
:101170009DED0C1B53EC112B12F036F89DED0E1B60
:1011800053EC112B12F01AFD41EC100B53EC1A2BFF
:101190008DED060B51EC1B0B12F004FB8846064646
:1011A00048EC100B00E065E153EC182B51EC100BF0
:1011B00012F0F8FA41EC110B53EC1E2B8DED041BD1
:1011C000029941EC107B51EC100B12F0EBFA41EC60
:1011D000110B51EC1F0B8DED021B9DED000B53EC21
:1011E000102B12F0DFFA53EC1D2B12F0DBFA41EC5E
:1011F000110B53EC1A2B8DED081B51EC1A0B12F04E
:10120000D1FA53EC1D2B12F0CDFA41EC110B53EC3B
:101210001E2B8DED001B0BE0000000000000E03FE6
:10122000000000000000004000000000000000007E
:1012300051EC1A0B12F0B6FA41EC1A0B53EC182BC6
:1012400051EC1F0B12F0AEFA53EC1A2B12F0B6FC55
:1012500053EC192B12F0A6FA9DED001B53EC112B49
:1012600011F0C2FF9DED081B53EC112B12F0A6FCF0
:101270009DED021B53EC112B11F0B6FF9DED041BED
:1012800053EC112B12F09AFC41EC100B53EC1D2B7C
:101290008DED040B48EC106B51EC100B12F082FA40
:1012A00041EC110B53EC1E2B8DED001B119941EC01
:1012B000109B51EC100B12F075FA41EC110B53EC32
:1012C000182B8DED021B109941EC10AB51EC100B5B
:1012D00012F068FA41EC1A0B53EC1B2B51EC1B0B70
:1012E00012F060FA53EC182B12F05CFA41EC180B78
:1012F00053EC1E2B51EC1B0B12F054FA41EC1B0B60
:1013000053EC1D2B51EC1F0B12F04CFA53EC1B2B22
:1013100012F054FC53EC192B12F044FA53EC182B36
:1013200011F062FF53EC1A2B12F048FC9DED021BEA
:1013300053EC112B11F058FF9DED001B53EC112BBA
:1013400012F03CFC9DED060B41EC190B53EC1C2BF1
:1013500051EC100B11F0FCFF41EC180B53EC1C2B63
:1013600085ED008B9DED040B51EC100B11F0F0FF9F
:1013700041EC1A0B53EC1C2B85ED02AB51EC190B15
:1013800011F0E6FF41EC190B85ED049B94ED100B79
:1013900053EC102B12F006FA94ED0E0B41EC1B0BE4
:1013A00053EC102B51EC1A0B12F0FCF994ED0C0BD2
:1013B00041EC1C0B53EC102B51EC180B12F0F2F912
:1013C00053EC1C2B11F010FF53EC1B2B11F00CFFF6
:1013D0001FED6D1B53EC112B12F0E4F994ED061B7D
:1013E00094ED000B41EC1B0B53EC112B51EC100B4B
:1013F00011F0FAFE94ED0A1B53EC112B11F0F4FEE0
:1014000053EC1B2B12F0DAFB94ED301B53EC112B39
:1014100011F09EFF41EC1B0B53EC192B51EC190BF7
:1014200012F0C0F941EC190B53EC1A2B51EC1A0BCA
:1014300012F0B8F941EC1A0B53EC182B51EC180BC5
:1014400012F0B0F953EC1A2B11F0CEFE53EC192B1D
:1014500011F0CAFE53EC1B2B11F0C6FE41EC100B31
:1014600009F0D4FC8BED000B012013B0BDEC108B08
:10147000BDE8F08F0020F8E72DE9F04F0D462DED87
:10148000108B04468BB091ED00AB53EC1A2B51EC52
:101490001A0B12F087F994ED0CCB53EC1C2B12F0C5
:1014A00081F953EC1C2B12F07DF994ED30FB41ECEB
:1014B000180B53EC1A2B51EC1F0B12F073F98B46DF
:1014C0004BEC100B074653EC1A2B51EC100B12F09F
:1014D00069F994ED00EB53EC1E2B12F063F953EC19
:1014E000182B12F06BFB41EC190B53EC1E2B51EC3B
:1014F0001A0B12F057F953EC1C2B12F053F94BEC6A
:10150000107B94ED121B41EC180B53EC112B51EC9A
:10151000100B12F047F953EC192B12F077FA53EC39
:10152000182B11F061FE41EC1B0B1FEDC30B51ECAE
:101530001A0B53EC102B12F035F9894649EC100BBD
:1015400095ED029B064653EC192B51EC100B12F053
:1015500029F953EC1C2B12F025F994ED0EDB53EC1A
:101560001D2B12F01FF941EC180B1FEDD30B51ECA2
:101570001F0B53EC102B12F015F9824653EC1A2B6B
:10158000069112F00FF953EC192B12F00BF994EDB0
:10159000021B53EC112B12F005F953EC1B2B11F02D
:1015A00023FE53EC182B12F009FB41EC180B53EC03
:1015B0001C2B51EC1A0B12F0F5F8049194ED06BBBC
:1015C000804653EC1B2B12F0EDF841EC110B4BEC69
:1015D000107B8DED001B94ED141B51EC100B53ECA4
:1015E000112B12F0DFF853EC182B12F00FFA9DEDCF
:1015F000001B53EC112B11F0F7FD41EC110B49ECE2
:10160000106B8DED001B95ED048B51EC100B53EC22
:10161000182B12F0C7F853EC1C2B12F0C3F894ED02
:1016200010CB53EC1C2B12F0BDF841EC110B53EC1A
:101630001A2B8DED021B069941EC10AB51EC100BEF
:1016400012F0B0F853EC182B12F0ACF894ED041B28
:1016500053EC112B12F0A6F89DED001B53EC112B4F
:1016600011F0C2FD9DED021B53EC112B12F0A6FAF6
:1016700041EC100B8DED000B049994ED0AAB41EC9D
:10168000108B53EC1A2B51EC100B12F08BF841EC31
:10169000110B4BEC107B8DED021B94ED161B51ECE6
:1016A000100B53EC112B12F07DF89DED001B53EC49
:1016B000112B12F0ABF99DED021B53EC112B11F025
:1016C00093FD41EC110B8DED001B9FEDFE0B51ECDA
:1016D0001E0B53EC102B12F065F853EC1E2B12F07E
:1016E00061F841EC110B8DED021B9FEDF60B51ECF7
:1016F0001F0B53EC102B12F055F8059194ED241BA1
:10170000814653EC112B12F04DF89DED001B53EC6C
:10171000112B11F069FD9DED021B53EC112B12F002
:101720004DFA41EC110B53EC1E2B8DED001B51ECCF
:10173000190B12F037F853EC1D2B12F033F841EC73
:10174000110B53EC192B8DED081B51EC1F0B12F0F4
:1017500029F8039194ED181B064653EC112B12F057
:1017600021F89DED001B53EC112B12F04FF99DED6C
:10177000081B53EC112B11F037FD41EC110B8DEDD3
:10178000001B9FEDD20B51EC1E0B53EC102B12F0F3
:1017900009F88B464BEC100B054653EC1B2B51EC18
:1017A000100B11F0FFFF41EC110B8DED081B9FEDAD
:1017B000C70B51EC1F0B53EC102B11F0F3FF0491EE
:1017C00094ED2A1B804653EC112B11F0EBFF9DED9D
:1017D000001B53EC112B11F007FD9DED081B53EC82
:1017E000112B12F0EBF941EC110B53EC1E2B8DED8C
:1017F000001B51EC180B11F0D5FF53EC1C2B11F012
:10180000D1FF41EC1E0B53EC182B51EC1F0B11F0C8
:10181000C9FF029194ED1E1B074653EC112B11F0EA
:10182000C1FF9DED001B53EC112B12F0EFF853ECB0
:101830001E2B11F0D9FC4BEC105B41EC1F0B53EC51
:101840001A2B51EC100B11F0ADFF41EC1E0B04995B
:1018500094ED2C1B41EC108B53EC112B51EC100B25
:1018600011F0A0FF53EC1F2B11F0BEFC53EC1E2B0C
:1018700012F0A4F941EC1F0B53EC192B51EC190B8E
:1018800011F090FF53EC1D2B11F08CFF53EC1D2B2E
:1018900011F088FF41EC1E0B039953EC192B41EC1E
:1018A000106B51EC100B11F07DFF53EC1B2B11F062
:1018B00079FF53EC1F2B11F097FC53EC1E2B12F009
:1018C0007DF941EC1F0B53EC1B2B51EC190B11F064
:1018D00069FF53EC1D2B11F065FF41EC1E0B0399C2
:1018E00094ED1A1B41EC106B53EC112B51EC100BC7
:1018F00011F058FF53EC1F2B12F088F853EC1E2BFD
:1019000011F072FC41EC1F0B9FED720B51EC190BA7
:1019100053EC102B11F046FF53EC182B11F042FF43
:1019200053EC1D2B11F03EFF53EC1C2B11F03AFF32
:1019300041EC1E0B069953EC192B41EC10AB51EC0A
:10194000100B11F02FFF53EC182B11F02BFF94ED1F
:10195000081B53EC112B11F025FF53EC1F2B11F03A
:1019600043FC53EC1E2B12F029F941EC1E0B53ECF7
:101970001D2B51EC190B11F015FF53EC1A2B11F024
:1019800011FF41EC190B039994ED1C1B41EC106BFA
:1019900053EC112B51EC100B11F004FF53EC1E2BE8
:1019A00012F034F853EC192B11F01EFC41EC1D0B16
:1019B0009FED44EB51EC1B0B53EC1E2B11F0F2FE90
:1019C00053EC1B2B11F0EEFE41EC190B059994ED35
:1019D000261B41EC109B53EC112B51EC100B11F01A
:1019E000E1FE53EC1D2B11F0FFFB53EC192B12F011
:1019F000E5F841EC1D0B53EC1B2B51EC180B11F0CF
:101A0000D1FE53EC1C2B11F0CDFE41EC190B0299C9
:101A100094ED201B41EC107B53EC112B51EC100B7F
:101A200011F0C0FE53EC1D2B11F0F0FF53EC192BFD
:101A300011F0DAFB9FED250B41EC190B53EC102B49
:101A400051EC1B0B11F0AEFE53EC1A2B11F0AAFE59
:101A500041EC1B0B049994ED2E1B41EC108B53ECC5
:101A6000112B51EC100B11F09DFE53EC192B11F0C2
:101A7000BBFB53EC1B2B12F0A1F841EC1B0B53ECFE
:101A8000182B51EC180B11F08DFE53EC1C2B11F0A0
:101A900089FE53EC1C2B11F085FE41EC190B0299C9
:101AA00053EC182B41EC107B51EC100B11F07AFE2B
:101AB00053EC1A2B11F076FE53EC1B2B11F094FB18
:101AC0000CE00000000000000000D03F000000001B
:101AD0000000E03F000000000000004053EC192B24
:101AE00012F06CF841EC190B53EC1A2B51EC180B5B
:101AF00011F058FE53EC1C2B11F054FE41EC180B66
:101B0000029994ED221B41EC107B53EC112B51EC0C
:101B1000100B11F047FE53EC192B11F077FF53EC2B
:101B2000182B11F061FB41EC180B53EC1E2B51EC00
:101B30001A0B11F037FE53EC1A2B11F033FE41EC67
:101B4000190B059994ED281B41EC109B53EC112BBC
:101B500051EC100B11F026FE53EC182B11F044FB46
:101B600053EC192B12F02AF841EC100B0BB07DE46A
:101B700030B50446B0F88C0089B000040690B4F883
:101B80008E000D4600040790B4F8900088340004DD
:101B9000089002A80CF07AFC029906982B46401A8D
:101BA00006900399079806AA401A07900499089886
:101BB000401A08902088616A80B20CF007FB09B0D7
:101BC00030BDF0B50D462DED048B87B06946FFF7AB
:101BD000CFFF9FEDFE8B00246F469FEDFE9A03AE74
:101BE00057F8240000EE100A06EB8400B8EEC00A95
:101BF00020EE090A80ED000A20EE000A10EE100A1D
:101C000012F0C6F853EC182B11F0EEFA41EC180B59
:101C1000641C032CE4DBB0EE480AF0EE680A09F01D
:101C2000F5F8B0EE408AF0EE608A002456F8240001
:101C300012F0AEF853EC182B11F08AFB11F0A2FA57
:101C400000EE100A05EB8400641CD0ED000A032CA2
:101C500030EE200A80ED000AE8DB686D401C686504
:101C60000CF0C2FDE86707B0BDEC048BF0BD2DE9B8
:101C7000F04104460CF0A6FC40BB0CF027FC042805
:101C800024D0D54920460E46FFF79BFFD34DD5E91A
:101C90005C01814205DB304603F0E5FB0020C5F81E
:101CA0007401208E4FF00406C00515D504F118000C
:101CB0000CF07AFC8009B0F5C87F0AD2D5F8B800DC
:101CC000002850DD401EC5F8B8004AE00120BDE8FC
:101CD000F081C5F8B86044E0D4F8A010D5F814013C
:101CE000081A01D4034600E04342BB4A4FF4A02C3B
:101CF000583A634505DDD4E929035365C2E9131059
:101D00002FE00312D4F8A470D5F818015B43381AF9
:101D100001D4864601E0C0F1000EE64505DDD4F8A9
:101D2000A800D164C2E914701BE0001200FB00336C
:101D3000D4F8A800D5F81C11401A01D4014600E0DF
:101D4000414261450DDC001200FB0030B0F5403F20
:101D5000B4DBA034C5F8B86094E80B004C3282E8DC
:101D60000B000020B3E70220B1E72DE9F04F9B4CB8
:101D70002DED028B93B0D4F8A81090ED000B04EB7E
:101D8000C10181ED000BD4F8A810491CC4F8A810BB
:101D900090ED020B04EBC10181ED000BD4F8A8100B
:101DA000491CC4F8A81090ED040B04EBC10080EDB1
:101DB000000BD4F8A800401CC4F8A800152802DBCA
:101DC0000020C4F8A800182284490CA804F08BF85D
:101DD0001822824904A804F086F801260DF1300A81
:101DE0000DF1100BA146002406EB460808EB040198
:101DF00009EBC1050AEBC40795ED001B97ED000B3D
:101E000053EC112B51EC100B11F0CAFD03D295EDE0
:101E1000000B87ED000B0BEBC40795ED001B97ED56
:101E2000000B53EC112B51EC100B11F07FFC03D283
:101E300095ED000B87ED000B641C032CD6DB761CA4
:101E4000072ED0DB9DED0C1B9DED040B53EC112BED
:101E500051EC100B11F0B2FE9DED0E1B9DED060B2B
:101E600041EC180B53EC112B51EC100B11F0A6FEAA
:101E700053EC182B11F05AFC0BD39DED0E1B9DED6E
:101E8000060B53EC112B51EC100B11F097FE41ECAB
:101E9000180B9DED101B9DED080B53EC112B51EC15
:101EA000100B11F08BFE53EC182B11F03FFC0BD3F1
:101EB0009DED101B9DED080B53EC112B51EC100BFD
:101EC00011F07CFE41EC180B13B0B0EE480AF0EEB6
:101ED000680ABDEC028BBDE8F08F10B504462DED0D
:101EE000068B9CB0002155200E91CDE90F1011906A
:101EF0009FED3B8B0AA80CF093FA12A90AA80CF0EC
:101F00007CFD16AA0EA912A80CF09AFD6A460AA931
:101F100016A80CF095FD0198B2EE059A00F59670A2
:101F200001900298B0EE490A00F59670029003986D
:101F300000F596700390FEF78BFBBDEEC00A019989
:101F400010EE100AB0EE490A08440190FEF780FB3B
:101F5000BDEEC00A029810EE101AB0EE490A08440D
:101F60000290FEF775FBBDEEC00A039910EE100A51
:101F700008440390204601A9FEF77DFC94ED300B48
:101F80009FED191B51EC100B53EC112B11F008FDB8
:101F90005DD21AAA04A92046FEF73FFE60B39DED6C
:101FA000080B9FED138B51EC100B53EC182B11F019
:101FB00005FE41EC100B53EC102B11F0F3FB41EC40
:101FC000190B9DED060B53EC182B16E000000000DA
:101FD0000000000000008037084C0120E84A012082
:101FE0000000000000408F4000000000000034406E
:101FF0000000000000C0724029E051EC100B11F00D
:10200000DDFD41EC100B53EC102B11F0CBFB9DEDE3
:10201000040B41EC1A0B53EC182B51EC100B11F084
:10202000CDFD41EC100B53EC102B11F0BBFB53EC2E
:102030001A2B11F0D9F853EC192B11F0D5F841EC0B
:10204000100B08F0E3FEB0EE408AF0EE608A9FEDE0
:10205000FD0B51EC180B53EC102B11F079F91CB05F
:1020600041EC100BBDEC068B10BD10B5E821F74814
:1020700003F0D2FFF648F74920F8BC1F4A0CC28093
:10208000C181828281834284F048E821E83003F0F4
:10209000C3FFEF490020C1F8B40010BD2DE9F043A3
:1020A000EB4D04462DED108BC3B0006BC5F8A001BD
:1020B0002046FFF7DCFD00287ED1D5F8941105F10C
:1020C000BC08012911D1B4F98C003D90B4F98E00FF
:1020D0003E90B4F990003F903DA9DC48FEF7CBFB61
:1020E00004F18C01404600F0A4FB1FED48DB9FED9E
:1020F000DABB9FEDDBCB9FEDDCAB9FEDDDEBD34E91
:10210000D5F80801E83E002802DD401EC5F80801A8
:1021100096ED300B53EC1D2B51EC100B11F040FCE5
:102120007DD2CA49E822E839684603F0DCFEC74898
:102130003DA9E838FEF79FFBC44940AA20390F4665
:10214000A1F1C800FEF769FD00287BD0BF483946E1
:10215000E838FFF791F9B0EE408AF0EE608A95ED2D
:10216000400B51EC180B53EC102B11F027FD96EDA2
:10217000300B41EC190B53EC1B2B51EC100B11F0F5
:102180001DFD41EC100B51EC190B53EC102B11F011
:10219000DFF841EC100B08F039FE96ED30FBB0EEA5
:1021A000409AF0EE609A53EC1B2B51EC1F0B11F090
:1021B00005FD53EC1F2B00E0E9E011F0F3FA41ECD0
:1021C0001F0B53EC1C2B51EC180B11F0EBFA53ECDA
:1021D0001F2B11F0BDF841EC100B08F017FED5F8DD
:1021E000E80011F0D5FD95ED381B53EC112B11F0E3
:1021F000D9FA53EC192B11F099FA03D3D5F8080149
:10220000002826DD9148E8226946E83803F06BFE95
:10221000D5F8E80011F0BCFD95ED381B01E010E0A9
:1022200010E053EC112B11F0BDFA53EC192B11F007
:102230007DFA5CD24FF4FA7001F03CFE0A20C5F83A
:10224000080154E08148E8226946E83803F04BFE73
:102250004DE0D5F89801012849D1D5F8B400401CCB
:10226000C5F8B40000200DF00FF896ED320B53ECDA
:102270001A2B51EC100B11F095FA11F0FDF93A9070
:1022800096ED340B53EC1A2B51EC100B11F08AFA2B
:1022900011F0F2F93B9096ED360B53EC1A2B51EC02
:1022A000100B11F07FFA11F0E7F93C9003213AA8E6
:1022B0000CF09CFF96ED300B53EC1E2B51EC100BE9
:1022C00011F06EFB11D29FED6C0A6049E839F0EE17
:1022D000400A0846FEF7FFF95C483946E838FFF740
:1022E000CBF8B0EE408AF0EE608A85ED408B208E10
:1022F000564FC0050CD5B4F87400C00508D507F1D9
:10230000E800FFF7EAFDB0EE408AF0EE608A01E0F7
:102310009FED4C8B97ED300B1FEDCD1B51EC100B4F
:1023200053EC112B11F002FA31D3484940AAC831BD
:1023300089464648FEF771FC00287CD0D4F8AC00F2
:1023400011F0C9F941EC100B53EC102B9FED4B0B26
:1023500051EC100B10F0FCFF41EC1F0B4846FFF74F
:1023600004FDB0EE409AF0EE609A53EC1F2B51EC56
:10237000190B11F015FB0BD29FED420B51EC180B12
:1023800053EC102B11F0D2F902D2FFF76EFEDBE115
:1023900053EC1F2B51EC190B11F0C8F951D251EC31
:1023A000180B9FED3A9B53EC192B11F0BFF9F5D2A6
:1023B00097ED300B9FED371B51EC100B53EC112BAD
:1023C00011F0EEFAEAD296ED300B53EC1D2B51ECE6
:1023D000100B11F015F97CD149461C48FFF74CF859
:1023E000B0EE408AF0EE608A85ED408B97ED309B31
:1023F00053EC1B2B51EC190B11F0E0FB53EC192B98
:1024000011F0D0F941EC190B53EC1C2B51EC180BCB
:1024100011F0C8F953EC192B10F09AFF41EC100B96
:1024200008F0F4FCB0EE408AF0EE608AD5F8E800DF
:1024300011F0AEFC00E088E195ED381B53EC112B58
:102440002CE078E10000000000000840184901205D
:10245000E84A01200080FFFF000000000000F03F7C
:102460000000000000000040000000000000F040FC
:102470000000000000409F406666E63E9A999999E8
:102480009999A941000000000000F83F00000000F9
:10249000000010400000000000003E4011F082F9F2
:1024A00053EC182B11F042F9FFF46FAF9DED400B88
:1024B00049464046FDF7C4FF02283FF466AF0028B6
:1024C0007ED1D5F898010128FAD100200CF0DCFE6D
:1024D00000E02FE097ED320B53EC1A2B51EC100B70
:1024E00011F060F911F0C8F83A9097ED340B53EC05
:1024F0001A2B51EC100B11F055F911F0BDF83B906F
:1025000097ED360B53EC1A2B51EC100B11F04AF9E6
:1025100011F0B2F83C9003213AA80CF067FE0120BC
:102520000CF094FE192000900190029068460CF087
:1025300083FEF6E0D5F8B40011F0CDF897ED301B2E
:1025400053EC112B10F004FF9FEDE71B53EC112B04
:1025500011F026FAA8D34946E548FEF78DFF97ED1E
:1025600030DBB0EE408AF0EE608A53EC1B2B51EC6E
:102570001D0B11F023FB53EC1D2B11F013F941EC53
:102580001B0B53EC1C2B51EC180B11F00BF953ECFB
:102590001B2B10F0DDFE41EC100B08F037FCB0EE09
:1025A00040BAF0EE60BAD5F8E80011F0F1FB95ED15
:1025B000381B53EC112B11F0F5F853EC1B2B00E0FA
:1025C00087E011F0B3F8C5D39DED400B4946404676
:1025D000FDF736FF00287CD196ED361B97ED360BC4
:1025E00053EC112B51EC100B11F0E8FA41EC100BED
:1025F00053EC102B11F0D6F896ED341B97ED340BFD
:1026000041EC1B0B53EC112B51EC100B11F0D6FAD3
:1026100041EC100B53EC102B11F0C4F896ED321B6B
:1026200097ED320B41EC1C0B53EC112B51EC100BC2
:1026300011F0C4FA41EC100B53EC102B11F0B2F86E
:1026400053EC1C2B10F0D0FD53EC1B2B10F0CCFDE9
:1026500041EC100B08F0DAFBB0EE40BAF0EE60BAD5
:10266000D4F8AC0011F037F853EC1B2B11F09AF8AA
:102670009FEDA01B53EC112B11F094F841EC1B0BB8
:1026800053EC192B11F08CF91AD39FED9C0B51ECE4
:102690001B0B53EC102B11F083F9BFF476AED5F879
:1026A000B40011F018F897ED301B53EC112B10F01B
:1026B0004FFE9FED941B53EC112B11F037F8ECD229
:1026C000D5F8980101287FF460AE00200CF0DCFD05
:1026D00000E039E085ED408B97ED320B53EC1A2B7F
:1026E00051EC100B11F05EF810F0C6FF3A9097ED28
:1026F000340B53EC1A2B51EC100B11F053F810F073
:10270000BBFF3B9097ED360B53EC1A2B51EC100BA3
:1027100011F048F810F0B0FF3C9003213AA80CF0FB
:1027200065FDF7EE000A9FED790A7149A1F1E80015
:10273000FDF7D1FF29E697ED300B53EC1E2B51EC42
:10274000100B11F02DF9F5D3002043B0BDEC108B28
:10275000BDE8F08370B56E4C0546D4F80C0110B995
:10276000284600F091F8D5F8B01044F62060814278
:102770000ADAD4F8102111448142C4F810114FF044
:10278000000005DBC4F810012846BDE8704085E470
:1027900070BD04224FF4C871AFF247000CF08EBB3D
:1027A000AFF24F000CF04EBE514810B5E821E838AA
:1027B00003F032FCFFF759FC4FF4D471544803F096
:1027C0002BFC534CB7EE000A04F5907084ED3A0AE6
:1027D00002F095FD0A20C4F87001B2EE000A84ED03
:1027E000570A1E209FED4B0AC4F87C0184ED620A53
:1027F0009FED490A84ED610A9FED480A002084EDAF
:10280000630A10BD10B5FFF7CFFF002805D1AFF266
:102810007D00BDE810400CF015BC10BD10B5AFF246
:10282000CB000CF00FFEAFF29500BDE810400CF0AD
:102830003BBE30B50022C2EBC20331F9124030F981
:102840001350AC420ADD02EB42040D8820F82450FC
:1028500000EB84044D8865808D88A58000EB4303E0
:1028600031F91240B3F906309C4209DA02EB420317
:1028700000EB83030C88DC804C881C818C885C8195
:10288000521C032AD7DB30BD70B5214DD0F8AC20E7
:102890000446EAB1D3170020192103F0FEF845F8E9
:1028A000AC0F54F8AC2F0020D317052103F0F5F836
:1028B000686022680020D317962103F0EEF810F02C
:1028C0000AFFC5E90D01AC3D0120C5F80C0170BD42
:1028D0006FF00040C5F8AC009FED110BC5F8B000DB
:1028E00085ED380BF0E700000AD7A3703D0AE73FFB
:1028F00018490120000000000000103E0000000008
:1029000000000440333333333333C33F000000004F
:10291000E84A0120CDCCCC3E3333333F9A99193F5E
:102920000000C0FFFFFFDF4110B5FF49C4074FF0B3
:1029300040434FF0804205D08B66CB66C1E91C3224
:102940008A67CA67840709D5C1F80031C1F8043124
:10295000C1E94232C1F81021C1F81421400709D55C
:10296000C1F89831C1F89C31C1E96832C1F8A82199
:10297000C1F8AC2110BD2DE9F14F002082B0824694
:1029800081460298806F00287ED000220020401CE3
:102990000428FCDB029800EBC203D3E90010A1FB82
:1029A0000167D3E9065400FB017701FB0077AB46D2
:1029B000AD1BCDE900670326A5FB06C8A64664EB60
:1029C000070404FB0684002705FB0745DDE90067D3
:1029D0001CEB06047D41A4FB016705FB017504FBAC
:1029E0000055D3E90C47341B65EB0705CDE90045DD
:1029F0005D46A5FB05670324A6FB04580EFB0B7779
:102A00000BFB0E7707FB04844FF0000C06FB0C4415
:102A1000D3E91263761B63EB04034C18A4FB017C1F
:102A200040EB000505FB01C504FB0055A7FB014C6D
:102A300005FB01C507FB0055A4FB017C05FB01C597
:102A400004FB0054F6196341DDE90045AD0045EA99
:102A50009475A400A4FB017C05FB01C104FB0014D8
:102A6000F01B73EB040103D50023404263EB01012B
:102A7000BAEB000479EB010301DA82468946521C65
:102A8000032A83DB504600E016E0494611F0AEF918
:102A900000EE900AA54890ED0E1A80EE810A10EE25
:102AA000100A11F021FAA04AD2F80C2203B09200C9
:102AB000BDE8F04F02F0DEBF002003B00146BDE8E4
:102AC000F08F2DE9F14F0020009A0146926FE2B39A
:102AD00000240022521C042AFCDB009A02EBC405ED
:102AE000AA46D5E90029A2FB023CD5E906769E4616
:102AF000FB1A0325A3FB057809FB02CC02FB09CBDB
:102B000066EB0B0606FB05854FF0000C03FB0C562D
:102B100017EB0E03A3FB027C46EB0B0606FB02C27F
:102B200003FB0923DAE90C25BA1AAB4103D50025CA
:102B3000524265EB0303851A71EB030501DA104677
:102B40001946641C032CC4DB00E015E011F04EF9BB
:102B500000EE900A754890ED0E1A80EE810A10EE94
:102B6000100A11F0C1F9704AD2F80C22BDE8F84FF2
:102B700002EB420202F07EBF00200146BDE8F88F62
:102B80002DE9FE43684D80460024D5F810626F465B
:102B900005EBC4013246D1E9020102F058FF05EB12
:102BA0008401B1F884100904401847F8240004F1A6
:102BB0000104032CECDB5C489821083003F02CFA6C
:102BC0000120FFF7B1FE95F8E8010199042807D12B
:102BD000D5F81802B0F5201F02DD052085F8E801C0
:102BE000524C0098636AC11A01D40E4600E01E1AC6
:102BF0000198A26A801A01D4074601E0019FD71B01
:102C0000BE4206DD002901D4084606E00098181AE5
:102C100003E0002801D50198101A029AE16A521ABD
:102C200001D4134601E0029BCB1A834205DB002A44
:102C300001D4104601E00298081AD8F824100BF0CD
:102C400094FED5F81812814206DD032168460CF087
:102C500021FB02200CF086FB009860620198A062C4
:102C60000298E062BDE8FE83304AC2E90201704783
:102C70002E4AC2E9060170472C4AC2E90401704796
:102C8000294AD2F8E0310360D2E97402C1E90002B6
:102C90007047254AD2F8E0310360D2E97602C1E9F3
:102CA000000270472DE9FE4781460020EA468A6F00
:102CB00022B901EB800339F91020DA6701EB8002B9
:102CC00039F91030D46F1D1B4AF82050136E9D4205
:102CD00000DD1566D36E9D4200DAD566012300241F
:102CE00022464FEAE578A3FB056704FB057403FB66
:102CF0000844334602EB420601EBC60606EBC00C65
:102D0000DCE90076FF186641CCE90076521C042A03
:102D1000E9DB401C0328CADB886F401C8867012060
:102D2000C1F89000BDE8FE87904C0120F04E0120D4
:102D300030B5002302EB830550F823405B1CEC66A2
:102D4000032BF7DBC2F88810916F79B1002102EBF9
:102D5000810450F82130E56F5B1B00D55B42256E86
:102D60009D4200DA2366491C0329F0DB906F401C6A
:102D700090670120C2F8900030BD10B500210B46CD
:102D800000EB8102491CD46ED46713660329F7DB7C
:102D9000D0F8881040F8783FC0E9051310BDD0E99D
:102DA0002210081A70470146D1E91802824200DB5E
:102DB0001046896E814200DB084670472DE9F047D6
:102DC0008046501E012686408946C2F120074046B3
:102DD00002F050FE04460D46404649463A4602F08F
:102DE00036FE3A4602F046FEB04203DD641C45F171
:102DF000000505E07142884202DA641E45F1FF35A4
:102E000020462946BDE8F087F7490020086248625D
:102E10008862C862086448648864C8640863486358
:102E20008863C863086548658865C865704730B5BC
:102E3000EE4AD2F8483223B1D2E990542D1A8C418F
:102E400001DAC2E990015B1CC2F8483230BD30B5EE
:102E5000E64AD2F8583223B1D2E994542D1A8C4163
:102E600001DAC2E994015B1CC2F8583230BD30B5BA
:102E7000DE4AD2F828322BB1D2E98845041B71EB27
:102E8000050401DAC2E988015B1CC2F8283230BDB2
:102E900030B5D64AD2F838322BB1D2E98C45041B72
:102EA00071EB050401DAC2E98C015B1CC2F838320F
:102EB00030BD2DE9F0470246CC4801250830804658
:102EC000C36E016E046FC91A436E1B1B8B4200DB7D
:102ED0001946836ED8F87400181A884200DB014640
:102EE000C14F6037F86B884204DA002400F010FA12
:102EF000204687E7108E0124BC4EC0054FF000012C
:102F00000ED5D6F880303068834209DBB2F87420E1
:102F1000D20506D5D6F8B021824201DB052400E0B7
:102F20000C4674B3600719D5AF48C8388146FFF71F
:102F300022FD000D40EA01300915C6E97601D7E906
:102F400004321B1A8A4102DA0025FFF7A1FF9821FB
:102F5000484603F061F80420FFF7E6FCE0070ED0D6
:102F60004046FFF708FDC6E97C01D7E90634024672
:102F7000181A8C4103DA00251046FFF778FF28461F
:102F800040E7FFE702203DE71EB5044690F8300019
:102F9000C0F38110032804D19449201D0831FFF7A4
:102FA00081FE94F87400C0F38110032805D18E4986
:102FB00004F14800C839FFF775FED4F8B8008B4A11
:102FC000C0F38113A0326946032B0FD0C0F3411028
:102FD00003281AD1002004EB8003D3F8A0309B1300
:102FE00041F82030401C0328F5DB09E0002004EB09
:102FF0004003B3F98C3041F82030401C0328F6DB45
:103000006846D4F8C010FFF793FE1EBD2DE9F047C7
:1030100005460020296BCA056AD501F050014029F8
:1030200000D1012095F8741001F05001402900D121
:10303000012095F8B8106D4C01F05001402900D0E6
:1030400030B100F065F90020C4F8E00184F8E8012F
:10305000654ED4F80812E86A6036814228D0C4F878
:1030600008020A28306B0CDA40002060716B00EE19
:10307000100A491CC4F80C12B8EEC00A07F003FF8E
:1030800005E02060706BC4F80C0296ED0E0A84ED2A
:10309000850AD4F80C02C0F11000C4F810024FF4F5
:1030A0008040C4F8180296F8341019208840F06364
:1030B0002846FFF769FF94F8E811DFF830910527FB
:1030C0004FF0020809F1A009072911D2DFE801F049
:1030D000041127305E7E8500D4F8E001411CC4F85D
:1030E000E0110A2804DB00F013F9012084F8E8015C
:1030F00086E0D4F89800012810D12846FFF7D9FEC1
:1031000010B1012803D004E084F8E87101E084F8EC
:10311000E8814846FFF731FEFFF776FE70E00320B6
:1031200084F8E8012846FFF72BFD00F0F1F867E08E
:103130002846FFF7BEFEE8B3012861D1B5F8B80014
:103140004FF00403C00515D54846FFF72CFE014695
:10315000C017C4E97410D6E902C2BCEB0101824178
:1031600002DA84F8E87108E04846FFF718FE316A91
:10317000884202D384F8E83124E0F4E97601FFF7CD
:1031800066FED4E90601FFF752FE39E0B5F8B80053
:10319000C0050BD54846FFF706FE0146C017C4E937
:1031A0007410D6E90232591A824108DB2846FFF72B
:1031B00080FE00E003E010B1012803D020E084F895
:1031C000E8711DE02846FFF7DBFCD6E7062084F80F
:1031D000E80101200CF0C6F80DE02846FFF769FE73
:1031E000012805D038B10BE0904E0120904C012011
:1031F00084F8E88104E000F08BF84846FFF7BDFD55
:103200000020FFE510B500214010002802D001F198
:103210000101F9DC4FF0010001F1010100FA01F0B8
:10322000434C00EE100AC4E90C01B8EEC00A07F0E6
:103230002AFE84ED0E0A94F8341019208840E063C9
:1032400010BD10B54FF418713A4802F0E5FE402168
:10325000374802F0E1FE0720FFF766FB344840F2F2
:10326000DC510022C0E906121421C0E902124FF419
:103270001671C0E9041230492E4C01620120C4F8D5
:10328000E4011920FFF7BEFF0020C4F8080210BDBA
:1032900010B54FF41871274802F0BEFE0720FFF763
:1032A00043FB244801210022C0F8E41180F8E81112
:1032B000032101200CF048F807226421AFF2B3206B
:1032C000BDE810400BF0FABD10B501200CF04AF833
:1032D000AFF2C720BDE810400CF0B4B810B5FFF74E
:1032E000B0FF002805D1AFF25700BDE810400BF049
:1032F000A9BE10BD10B5FFF7E7FFAFF26B00BDE848
:1033000010400CF0D1B80B49D1E97C0170477047EF
:10331000084810B59821083002F07EFE9821074831
:1033200002F07AFEBDE810400520FFF7FDBA00006C
:10333000F04E0120904C01200008AF2FC84D012015
:10334000F0B516462DED028B85B01F460C4605469E
:103350003C22FE49A1F10C0002F0F7FDFB4950228E
:103360004C31A1F1100002F0F0FDF84996E80D0093
:103370000C3901F13C0C8CE80D005CCC01F198009B
:1033800080E85C009FEDF28AD1F82401401CC1F86E
:103390002401062802DD0620C1F82401C0F106063A
:1033A0000C46A0351AE004EB06116A46384648314F
:1033B0000BF046FB06EB460004EB80016A4628460C
:1033C0000AF0ACFEF0EEC00AB0EEC81AF4EEC10A84
:1033D000F1EE10FA01D2B0EE408A761C062EE2DB46
:1033E00005B0B0EE480ABDEC028BF0BD70B51446D6
:1033F0002DED048B0E46B0EE408A00259FEDD59A48
:10340000416BF0EE498A002904DBD0F8BC000328A8
:1034100000D10125CD492422B431081F02F095FDC9
:10342000CA480C38002380ED388A00EB83015B1C0E
:1034300091ED2F0A0A2B70EE288AF6DBB2EE040A11
:10344000C822C8EE800AC0ED390A9FEDC31A322E99
:103450001DDB9FEDC20AC0F81C21B6F57A7FC8EECD
:10346000001A00EE104AB8EEC00A61EE801A81EE32
:10347000810A2FDB9FEDBA0AC8EE001A00EE104A4F
:10348000B8EEC00A61EE801A81EE810A22E041F2B4
:10349000883194FBF1F14942D0F81C3101EB8101F4
:1034A000C918C0F81C1102D50021C0F81C119FEDED
:1034B000AD0AC8EE001A00EE104AB8EEC00A61EE7E
:1034C000801A81EE810A29B9D0F82811012901D189
:1034D000B0EE490AD0F8201109B1B0EE480AA2496D
:1034E0008C4201D1B0EE480AB5EEC00AF1EE10FAF6
:1034F00001D0C0ED3A0A90ED3A1A9C4B71EE600A89
:10350000F0EEE00A10EE901A994227DDD0ED2E0A77
:10351000F5EEC00AF1EE10FA20D1002D1ED0C0F851
:103520001C21204610F0D7F841EC190B18EE100AB8
:1035300010F02EFC9FED8E1B53EC112B0FF008FFAB
:1035400053EC192B10F02EF99FED8B1B53EC112B24
:103550000FF0FEFE0FF016FE00EE100ABDEC048B1D
:1035600070BD2DE9F04F04462DED048BA9B09FED01
:10357000799A4FF0000A754ECDF810A00C3ECDF8A8
:1035800014A0CDF818A0D6F82011022003297DD070
:1035900000209FED7B8A20AD06EB800191ED2A0A89
:1035A00005EB8001401CB8EEC00A042820EE080A92
:1035B00081ED000AF0DB0FA80AF032FF24A80AF020
:1035C0008BFF624B24AA9C330FA920462793FFF759
:1035D000B7FEF0EE408A04F118000AF0E5FF810919
:1035E0006148D6F83021824200DB0246B0EE680A1C
:1035F0002046FFF7FBFED6ED3B0AB3460BA820EEB4
:10360000200A86ED2E0A0AF00BFF13A90BA80BF077
:10361000E8FB4E480FAAF0300BA906460BF010FA53
:1036200031460BA80BF0E9F900210DF13C080DF132
:103630004C090DF1100E00221346104601EB410C0F
:103640000CEB000759F8276008EB8007401C7F68E7
:103650000328C6FB0723F3DB900F40EA83004EF8F4
:103660002100491C0329E6DBDBF820015E46002827
:103670006AD05046CDF818A0404200EE100AB8EECD
:10368000C00A20EE080A07F063F800E0A2E08DED22
:10369000000A8DED019A8DED029A0698404200EEE7
:1036A000100AB8EEC00A20EE080A07F0E7FA8DED1E
:1036B000030A9DED060ADFED330AD6F83001B8EEB5
:1036C000C00A41F2883190FBF1F080EE201A00EE42
:1036D000100AF8EEC01A81EE210AB0EE001AC0EE10
:1036E000011ABDEEE10A10EE101A490000EE101AA0
:1036F0000691B8EEC00A60EE200A00EE100AB8EE9D
:10370000C00A20EE800ABDEEC00A8DED060AB8EEB2
:10371000C00A20EE080A07F01BF88DED070A8DEDB0
:10372000089A8DED099A9DED060AB8EEC00A20EEC2
:10373000080A07F0A3FA8DED0A0A1CAA694620A818
:103740000BF0D7F96A461FE04BE000003C4F012028
:10375000002474490000000000409C4500004843DC
:10376000000048420000C84340420F000E2DB23D09
:103770000000000000007940000000000088B34015
:1037800000008030E102374707A91CA80BF0B1F90F
:103790006F46DFED958AD4F8BC00002813DD0020C9
:1037A00007EB800191ED000A05EB800181ED000A35
:1037B00020EE280A06EB8001401C0428BDEEC00A5A
:1037C00081ED2A0AECDBD4F8BC00F6EE009A03285F
:1037D0000CD108E0C6F8200129B0BDEC048BBDE88F
:1037E000F08F069848E700F03DFEE0B396ED2A0A18
:1037F000B8EEC00A20EE080A8DED1C0A96ED2B0AE1
:10380000B8EEC00A20EE080A8DED1D0A96ED2C0ACE
:10381000B8EEC00A20EE080A8DED1E0A96ED2D0ABC
:10382000B8EEC00A20EE080A8DED1F0AD6F8200176
:103830000028D1D096ED2E0A20EE290A06F088FF46
:1038400020EE280ABDEEC00A86ED2A0AC6F8ACA012
:10385000C6F8B0A096ED2E0A20EE290A07F00EFA5F
:1038600020EE280A00E004E0BDEEC00A86ED2D0A35
:103870002BE096ED2E0A20EE290A06F069FF8DED69
:10388000070A8DED089A8DED099A96ED2E0A20EE25
:10389000290A07F0F3F98DED0A0A6A4607A920A85C
:1038A0000BF027F968460BF0E1F9002007EB8001E7
:1038B00091ED000A06EB8001401C20EE280A042846
:1038C000BDEEC00A81ED2A0AF0DBD4F8C0102798BB
:1038D0000BF0C2FCD6F820010028AAD0401E79E7E0
:1038E00070B590F8B810414ACC064FF000034FF085
:1038F000030101D4C2E94813B0F82041E40509D41A
:10390000048EE40503D5B0F87440E40502D4C2E99E
:1039100048131AE0D2F8341139B1D0E93013C91A7A
:103920004FF47A73B1FBF3F105E0D0F8B01044F630
:103930002064A14202DBC2F830110AE0D2F82C5117
:103940002944C2F82C11A14201DA002070BDC2E95D
:103950004B31FFF706FEF8E710B54FF49C71234892
:1039600002F05AFB214C4FF080400021C4F8FC00CB
:1039700044F8A80F1D48A8300BF06EFC4FF47A7085
:10398000B7EE000A606784ED110A10BD174880ED9C
:103990003B0A002070471549C1F8280100207047F4
:1039A0001249C1F834010020704704224FF4167107
:1039B000AFF2D3000BF082BAAFF2DB000BF042BDE6
:1039C00010B5FFF7C9FF09490020C1F82801C1F867
:1039D0003401AFF22900BDE810400BF033BBAFF269
:1039E00035000BF061BD00000000804E304F01201B
:1039F0001FB501461022684602F030FAF7489DE8EC
:103A00000E0080E80E00F6499DF80C0081F8B00128
:103A1000002004B010BD1FB5F0490EC98DE80E009E
:103A2000EF49102291F8B0118DF80C10694602F0A0
:103A300015FA0020EDE72DE9F04F91B0002518218F
:103A4000684602F0E9FA0024182106A802F0E4FA18
:103A5000E348A046C14690F8C01101297ED1D0F8B4
:103A6000B8B1D0F8B4A10022C2EBC20000EB400113
:103A7000DB4800EB810E9EF850000F90002864D0C8
:103A800000215FE0DDE900076D1C5EF821300E9338
:103A9000181847EBE376CDE900060EEB8100EDB296
:103AA00043690D93DDE9027C4FEAE376DB1946EBCF
:103AB0000C06CDE90236836ADDE9047CDE170C933F
:103AC000DB1946EB0C06CDE90436C06B0E9BDDE935
:103AD000067C83FB0063360C46EA0346F6194CEB82
:103AE0002343CDE906630D9BDDE9087C83FB00637E
:103AF0004FEA164646EA0346F6194CEB2343CDE956
:103B000008630C9BDDE90A7C83FB00634FEA1646E1
:103B100046EA0346F6194CEB2343CDE90A6380FBE2
:103B200000634FEA164646EA034616EB080849EBDF
:103B300023490444584501DA834602E0504500DD3C
:103B40008246491C0F9888429CDC521C052A8BDB5C
:103B5000A348AAEB0B01D0F8BC0100E056E081427B
:103B600054DBA5FB0823E0170026109006FB083065
:103B700005FB0900CDE90C2084FB0420110C41EA6F
:103B800000410014CDE90E0106A800EBC601D1E901
:103B90000003A0FB05B203FB0522002100FB012C62
:103BA000684600EBC601D1E90001A0FB043701FB28
:103BB0000471109A00FB0210190C41EA00490CAA8A
:103BC0004FEA204A92E889000F9983EA070880EAC1
:103BD000010252EA080212D0421A63EB0703BBEB60
:103BE00009006CEB0A0C4FEA0C4141EA1041000459
:103BF00001F053FF7A4901EB8601C1F8A401761C5C
:103C0000032EC1DB7648012180F8B01111B00020ED
:103C1000BDE8F08FF8B5724D0E460446D5E96D014A
:103C2000091A052291FBF2F1301A90FBF1F0C0B2B3
:103C30008DF80000042801D92020F8BDC0EBC00099
:103C400000EB400005EB800191F85000052816D0EC
:103C5000421C81F850209DF80010C1EBC10101EB1E
:103C6000410105EB810202EB8001CE63236842F83B
:103C7000203060684861A06888620020F8BD01F1CA
:103C80004003181F1022194602F05FF99DF800004A
:103C90001022C0EBC00000EB400005EB8000011DCE
:103CA00002F053F99DF800001022C0EBC00000EBB9
:103CB000400005EB800000F11801143002F045F9D6
:103CC0009DF800001022C0EBC00000EB400005EBA7
:103CD000800000F12C01283002F037F90420BAE707
:103CE00030B585B0044603A968460AF033FC04A841
:103CF0000AF0F8FC02282BD0D4F8E4000399401A0B
:103D0000374991F8B02112B308B3D1F8A421009C2F
:103D100080FB0232150445EA134222440092D1F896
:103D2000A821019C80FB0232150445EA134222447B
:103D30000192D1F8AC11029A80FB0110030443EA0E
:103D4000114010440290032168460BF0A3FA0CE0E6
:103D5000606B032809D10AF00FFC30B16846039963
:103D6000FFF758FF08B9FFF766FE05B0002030BD29
:103D700010B54FF4E2711A4802F04EF9184819498B
:103D8000C0F8B4114FF4AA01C0F8B8114FF4A02143
:103D9000C0F8BC11012180F8C011002010BD1049ED
:103DA000C1F8B801002070470D49C1F8B4010020E6
:103DB00070470B49C1F8BC010020704758B1084951
:103DC000D1F8A4210260D1F8A8214260D1F8AC1149
:103DD0008160002070470520704700000C520120D0
:103DE000685001200000D8FF2420F5E720B12D49BC
:103DF00081F8C0010020EFE72420EDE7294B93F87C
:103E0000B1010028E8D0D3E96D10401A052190FBDC
:103E1000F1F00020C0EBC00101EB410103EB810197
:103E200091F8502022B1002100E0491C8A42FCDCBC
:103E3000401C0528EEDB0020CEE7082296211A4818
:103E40000BF03CB818480BF0FDBA10B5FFF790FF27
:103E50004FF49A731022154915480BF0ABF820B9AE
:103E6000AFF229000BF0EEF808B1012010BD0D49AA
:103E7000012081F8B101002010BD10B5094C94F863
:103E8000B101002808D008480BF0DCFAAFF2550069
:103E90000BF00AFB08B1012010BD002084F8B1012D
:103EA00010BD000068500120E13C0008173A0008EE
:103EB000F1390008002803DDFE490122C1E9200292
:103EC0000020704710B5B821FA4802F0A5F89FED20
:103ED000FA0AF84880ED030A9FEDF80A80ED020A1D
:103EE0009FEDF70A4FF0804180ED000AB3EE0E0A15
:103EF00080ED010A41664FF4FA619FEDF20AC16755
:103F000080ED270A002010BD70B5EA4C002594ED25
:103F1000001AB4EEC01AF1EE10FA17D394ED011A9C
:103F2000B4EEC01AF1EE10FA10DC2069012817D1A6
:103F300094ED030AB4EEE00AF1EE10FA06D394ED24
:103F4000020AB4EEE00AF1EE10FA09DD606F20B962
:103F5000D848A16D18300BF07FF90120C4E91D0588
:103F6000D4E91E01884204DB606F012800D1E565B9
:103F7000656770BD10B504462DED028BB0EE408A2A
:103F80000AF05AFACB49002220B918EE100ACE4B9B
:103F9000984202DD0A614A6102E00869002808D1FE
:103FA000486920444861B0F5FA7F02DD0120C1E98B
:103FB0000402BDEC028B10BDF0B58DB00D46144669
:103FC000064669460AF00DFF09AA314628460AF05E
:103FD00037FD294630460AF010FD0021EC460DF170
:103FE000240E00231A46184601EB41073D180EEB3C
:103FF00080065CF825507668401CC5FB0632032815
:10400000F4DB980F40EA820044F82100491C0329A0
:10401000E7DB0DB0F0BDA7490020C1F88C00704768
:1040200010B590ED000AD0ED010AB8EEC00AB8EE66
:10403000E01AF8EEE00A20EE000A01EE200AD0EDC8
:10404000020AB8EEE01AF8EEE00A01EE200A06F0E5
:104050001AFFDFED9E0A20EE200A10BD00229549CE
:10406000012330B1012810D0C1F8983041F88C2FCD
:1040700031E081ED280A81ED290A9FED950A81ED55
:104080002A0AE1E924328A607047D1ED280A91EDCD
:10409000271A70EE600AF0EEE00AF4EEC10AF1EEC3
:1040A00010FA16D2D1F89400401CC1F89400D1ED5A
:1040B000290A312830EE800A81ED290AE4DD022048
:1040C000DFED840AC1F8900080EE201A81ED2A1AF3
:1040D000704741F8902F4A6070472DE9F0479846A5
:1040E0002DED088B8AB017468A4604469FED788AE4
:1040F0000025704E039504950595D6F88800002894
:104100007DD00AF049FA10B103A80AF015FAD6F8E2
:1041100080004FF00109002817DDC6F884900AF0EE
:104120003BFA48B103A80AF03FFA8009B0F5C87F0E
:1041300002D2D6F8800004E0D6F88000001BC6F852
:104140008000002801DCC6F884500AF04DFB0028EE
:1041500055D000209FED5D9A57F8201000EE101A00
:1041600058F82010401CB8EEC00A032860EE090A77
:1041700000EE101AB8EEC00A20EE800A00EE098A9E
:10418000EADB3846FFF74CFFF0EE408A4FF07E57EF
:1041900088EE280AF7EE00AA10EE100AB84201DDF8
:1041A000B0EE6A0A10EE100ADFF82C81BFEE00BAFA
:1041B000404501D9B0EE4B0A05F09CFCD6F88C00C6
:1041C000B0EE40AA98B196ED000AB4EEE80AF1EE1E
:1041D00010FA0CDD96ED010AB4EEE80AF1EE10FAE1
:1041E00005D2B0EE4A0AD6F89000FFF737FF6846CE
:1041F0000AF062FA2F490C22AC31684600E0E2E096
:1042000001F000FE18B9D6F8980001286BD12948B2
:104210009DE80E00AC3080E80E00009818B90198B7
:1042200008B90298F0B36846FFF7FAFEB0EE408A8C
:10423000B5EEC08AF1EE10FA55D0F2EE049A38EEDF
:10424000690A20EE000A06F01EFE86ED010A38EE2D
:10425000290A20EE000A06F016FE86ED000A9DED02
:10426000020AB8EEC00A60EE090AB0EE480A80EE13
:10427000808A18EE100AB84201DDB0EE6A8A18EEA4
:10428000100A404501D9B0EE4B8AB0EE480A05F05D
:1042900031FCD6ED270A30EE600A86ED020AB0EE58
:1042A000480A00E024E005F025FCD6ED270A30EEB0
:1042B000200A14E02C5201200000B4420000B4C2D5
:1042C000000070427B142E3E00401C4600008037E8
:1042D0000000000000004842000080BF03E086EDBF
:1042E000030AC6F88C50DFF88481F16D21B32FE00A
:1042F0001FED0D0A86ED000AB3EE0E0A86ED010AE7
:10430000D6F89800012808D01FED140A86ED020A9D
:104310001FED170A86ED030AE5E796ED2A0A96EDEA
:10432000271A70EE410A30EE010AC6ED020A86ED48
:10433000030AC6F89850D6E70027C6F85C9006EB4B
:104340000710414618300AF0ADF87F1C042FF6DB49
:10435000464906AA0C310F465046FFF72DFE394656
:1043600050460AF04AFB03A80AF01EF900EE100AB4
:10437000DFED3F0A2046B8EE400A20EE200AFFF7A4
:10438000F9FDF0EE4A0AB0EE680AFFF7BDFDD6E986
:104390001E01884201DA2044B067706F90B9306E18
:1043A00020443066B0F57A7F0CDD30493022303958
:1043B000A1F11000356601F0C8FD2C4841461038C7
:1043C0000AF070F8706F0AB0BDEC088BBDE8F0879A
:1043D00070B588B0044604A80AF07EF8D4E930012C
:1043E000451A68460AF01CF8064604AB04F1A00220
:1043F00069462846FFF771FE0AF040FF08B03046D4
:1044000070BD04224FF49671AFF23B000AF056BD26
:10441000AFF243000BF016B810B5FFF753FD0028BC
:104420000DD1124800215838C0F88C100121C0F875
:104430008810AFF23100BDE810400AF003BE10BD95
:1044400010B5AFF273000AF0FDFFAFF27B00BDE8DC
:1044500010400AF0F7BF054901205839C1F88C0017
:104460000020704701485838406F7047845201203F
:104470000000803CF0B51D462DED028B99B090ED0B
:10448000000AD0ED010A1746B8EEC00AB8EEE01AED
:10449000F8EEE00A0E4620EE000A044601EE200A7D
:1044A000D0ED020AB8EEE01AF8EEE00A01EE200ABA
:1044B00006F0E9FCF0EEC00A10EE900AB0F18D4F64
:1044C0007EDDD6ED000AB8EEE01ADFEDFE0A21EE41
:1044D000201A8DED041A96ED011AB8EEC11A21EEDC
:1044E000201A8DED051A96ED021AB8EEC11A21EECA
:1044F000201A8DED061A96ED031AB8EEC11A61EE78
:10450000200ACDED070A9FEDF08A10AA8DED0C8AE6
:10451000D4ED000A0CA904A8F8EEE00A80EE801A97
:104520008DED0D1AD4ED010AF8EEE00A80EE801A46
:104530008DED0E1AD4ED020AF8EEE00A80EE801A34
:104540008DED0F1A0AF0D5FA14A904A80AF061FA41
:104550006A4614A910A80AF0CCFA9DED021ADDED06
:10456000010ADA4921EE010A00EEA00A10EE100A53
:10457000884202DA9FEDD60A11E010EE100AD54902
:10458000884202DA9FEDD40A09E010EE100AD349FE
:10459000884202DAB5EE000A01E09FEDD10A01EE91
:1045A000907AB8EEE12ADFEDCF2A8DED088AC2EECF
:1045B000221A21EE800A21EE001A8DED091A00E080
:1045C00038E020EEC00A6A4604A98DED0A0A8DED96
:1045D0000B8A08A80AF08DFA6A4604A910460AF068
:1045E000EBF968460AF0EEFADDED000A9FEDBE0A2F
:1045F00060EE800AFDEEE00AC5ED000ADDED010A7D
:1046000060EE800AFDEEE00AC5ED010ADDED020A6A
:1046100060EE800AFDEEE00AC5ED020ADDED030A58
:1046200020EE800ABDEEC00A85ED030A19B0BDEC8C
:10463000028BF0BD96E80F0085E80F00F6E72DE944
:10464000F0410C462DED068B054690ED000AD0EDAD
:10465000010AB8EEC00AB8EEE01AF8EEE00A20EE61
:10466000000A01EE200AD0ED020AB8EEE01AF8EED8
:10467000E00A01EE200A06F006FC10EE100A4FF0E8
:104680007E5800264FF0804740453FDDD5ED020AB9
:10469000B7EE009AF8EEE00AC0EE808A39EE680ABA
:1046A0009FED89AAB5EEC00AF1EE10FA01DCB0EE7A
:1046B0004A0AF6EE009A20EE290A06F0E4FBB0EE74
:1046C000408A38EE890AB5EEC00AF1EE10FA01DC34
:1046D000B0EE4A0A20EE290A06F0D5FBF0EE408A39
:1046E00095ED000AB8EEC00A60EE000A95ED010AE9
:1046F000B8EEC01AB8EEC00A41EE000AB0EE600A89
:1047000006F0C1FB10EE100A404503DCC4E9007658
:10471000A66025E0DFED740A28EEA01ABDEEC11AEE
:1047200084ED001A95ED011AF8EEC11A81EE801A97
:1047300021EE081A61EE200AFDEEE00AC4ED010A3E
:10474000D5ED000AF8EEE00A80EE801A21EE080AA4
:10475000DFED660A20EE200ABDEEC00A84ED020AF3
:10476000E660BDEC068BBDE8F08170B590ED000A07
:10477000D0ED010A0546B8EEC00AB8EEE01AF8EE30
:10478000E00A0C4620EE000A01EE200AD0ED020AF3
:10479000B8EEE01AF8EEE00A01EE200AD0ED030AC6
:1047A000B8EEE01AF8EEE00A01EE200AB5EEC00A13
:1047B000F1EE10FA07D84FF08040206000206060D2
:1047C000A060C86070BD06F05EFBB7EE001AC1EED7
:1047D000000A9FED450A20EE800AD5ED000AF8EEAA
:1047E000E00A60EE800AFDEEE00AC4ED000AD5EDB5
:1047F000010AF8EEE00A60EE800AFDEEE00AC4ED80
:10480000010AD5ED020AF8EEE00A60EE800AFDEE3C
:10481000E00AC4ED020AD5ED030AF8EEE00A20EE44
:10482000800ABDEEC00A84ED030A70BD70B504466F
:1048300090F8300088B040067ED5A069002801DBE2
:10484000014600E041424FF480320026284D91425B
:104850000BDAE169002900DA4942914205DA216A5E
:10486000002900DA4942914267DB002800DA404221
:104870004FF4C80188420BDCE069002800DA4042AE
:10488000884205DC206A002800DA4042884201DDC7
:10489000032000E00220A863696BA06A814242D035
:1048A000686394ED0A0A9FED131AF8EEC00A80EED1
:1048B000810ADFED110A20EE200A10EE100A0FF037
:1048C00067FA1BE0000080300000000017B7513984
:1048D000A69BC43B0AD7233C8FC2753DCDCC4C3E32
:1048E000CDCCCC3E0014CD470000804E000080CEE1
:1048F000E4520120002474490000004E9FEDFA1B91
:1049000053EC112B0EF04EFF9FEDF91B53EC112BC6
:104910000EF048FF9FEDF81B53EC112B0EF018FD25
:104920000EF0AAFE28630496296BA0690AF01DF810
:104930000590296BE06901E022E023E00AF015F818
:104940000690296B206A0AF010F807906A4604A9BD
:10495000EB480AF075F80098E94A80010090019848
:1049600069468001019002988001029003988001BD
:10497000039010460AF00EF8E1490846FFF7F5FEED
:1049800008B070BDAE63FBE770B504462DED048B37
:104990008EB0D0F82001410676D5D94DD4F810114B
:1049A000D84B2A68891AD4F82C215A438A4201DA52
:1049B000032100E00221A963800504F5887602D571
:1049C000CF493046B5E0002107A809F0C3FDCC4926
:1049D0000C223C3107A801F015FA20B9D4F82801BF
:1049E000A96D88427ED020886B4680B207AA616A92
:1049F00009F0ECFB9DED000ADDED010AB8EEC00AFE
:104A0000B8EEE01AF8EEE00A20EE000A01EE200A05
:104A1000DDED020AB8EEE01AF8EEE00A01EE200A37
:104A200006F031FAB0EE408A9FEDB70A68EE000A50
:104A30009FEDB61A80EE810ADFEDB50A20EE200A5E
:104A4000D4ED4A0AF8EEE00A60EE800A1FED571A2C
:104A500080EE810AF6EE000A20EE209AB0EE490AB6
:104A600005F076FEF0EE408AB0EE490A06F006F94F
:104A700018EE100A4FF08041884206DA0020C5E99E
:104A800012102865686532E055E05FED690A68EE4E
:104A9000A00AFDEEE00AC5ED120A5FED6C0A20EEF9
:104AA000200ADDED000AF8EEE00A60EE200A80EE52
:104AB000881AFDEEC10AC5ED130ADDED010AF8EE14
:104AC000E00A60EE200A80EE881AFDEEC10AC5ED0C
:104AD000140ADDED020AF8EEE00A20EE200AC0EE2C
:104AE000080A00E00DE0BDEEE00A85ED150A07AB0F
:104AF00093E8070005F13C0383E80700D4F8280198
:104B0000A8657F4903AA4831304609F099FF7C48DF
:104B10000AAA5C3003A9044609F092FF21463046F8
:104B200009F06BFF03AA0AA9754809F089FF7449C7
:104B300003A8FFF71AFE0EB0BDEC048B70BD1FB5C5
:104B4000044669466E4809F058FF6D4A69462032AE
:104B5000204609F075FF6A491DCC103181E81D001F
:104B60001FBD2DE9F0470446654E90F8740006F12C
:104B70005C0A06F12008012500F05001103692B0C1
:104B800004F5887904F15C07402906D094F82001E7
:104B900000F0500040280DD01DE031463846FFF7A8
:104BA0004EFDB4F82001C0050CD55146484609F029
:104BB00024FF07E05146484609F01FFFB4F874008F
:104BC000C00508D569464E4809F017FF42466946B8
:104BD000304609F035FFB4F82001C005204602D563
:104BE000FFF7D2FE01E0FFF721FE3246444940467E
:104BF00009F026FF94F8740040066FD5208EB4F8B3
:104C000020110843C0056DD50FAA394630460AF079
:104C1000C7F8D4E9172080FB0001C2FB0201626ED5
:104C2000374FC2FB02014FF08042801A71F102003F
:104C300014DB04A809F000FDDDE9042080FB00017D
:104C4000C2FB0201069AC2FB02014FF08042801AA9
:104C500071F1020002DB0420B8630BE0B86B04289A
:104C600008D041F28832022806D0032804D0012857
:104C700052D009E0002507E0E16E91FBF2F5012D2D
:104C800000DA0125032800D0AD0022480024454366
:104C9000109807948002294609F067FE08900F9843
:104CA00029464042800209F060FECDE909040BAAC2
:104CB000314607A809F0C4FE32460BA9104609F098
:104CC00069FE31460846FFF750FD69460C4809F079
:104CD00094FE42466946304609F0B2FE12B000200A
:104CE000BDE8F08720E00000112D4454FB2109406D
:104CF00000000000000070400000000000806640DE
:104D0000E452012071981C00DB0F4940000034433D
:104D100000008037A69BC400E06E90FBF2F00128F3
:104D200000DA01204500AFE7334619463846E26E07
:104D3000FFF7A0FBC9E770B50446008EC105D4F8A3
:104D4000200107D4B4F87410C90503D4C10501D4F7
:104D5000002070BDC0F30120032807D02046FFF7D4
:104D600000FF2348A16B0AF05BFBF1E704F58871B3
:104D70001F482EC980E82E00F3E71E480AF062BBE8
:104D80001B4810B56C21103801F046F918484FF057
:104D900080411038016101600162C163C16500207A
:104DA00010BD184810B5082213A1006801F02AF8B8
:104DB00008B1322010BD1322BDE81040C8210D48B3
:104DC0000AF07CB810B5FFF7DBFF002805D1AFF281
:104DD0002D00BDE810400AF035B910BD10B50548EA
:104DE0000AF030FBAFF24500BDE810400AF05CBBB2
:104DF000F4520120374D0008654D504C20352E31BE
:104E000000000000F001002000209FEDFE0AFE4A95
:104E1000DFEDFE0A02EB8001401C81ED080AC0B202
:104E2000C1ED0B0A0328F5D37047F74A002002EBC7
:104E30008001D1ED080A91ED2D0AF4EEC00AF1EEE1
:104E400010FA01D281ED080AD1ED0B0AF4EEC00A86
:104E5000F1EE10FA01DD81ED0B0A401CC0B203280F
:104E6000E5D370473EB50B46B0F8481009040091F1
:104E7000B0F84A10009A09040191B0F84C100904E6
:104E80000291E1494C6E121B0092019A8C6E121B2A
:104E90000192029AC96E511A0291816EB0F84400D3
:104EA0006A4680B209F092F93EBDF0B5D64F0024B3
:104EB0002546D7F894208DB02E46012A01D1C7F897
:104EC000946009A9FFF7CEFF05A809F005FB059935
:104ED00009986022A0EBA130099006990A98A0EBEE
:104EE000A1300A9007990B98A0EBA130C8490B900C
:104EF000081F01F02AF80DF1240CC5489CE80E00AB
:104F0000143080E80E00684609F096FBC049602224
:104F10006C31081F01F019F8BD489DE80E00803083
:104F200080E80E0000210922D7F82C04401CC7F8A5
:104F30002C0401EB410007EB8000DDF800C0D0F845
:104F40004C33491C93FBF2F31C44D0F8503309292D
:104F500093FBF2F31D44D0F8543393FBF2F31E4459
:104F6000D0F8B83393FBF2F363440093D0F8BC332A
:104F7000DDF804C093FBF2F363440193D0F8C0035F
:104F8000029B90FBF2F018440290CDDB002C00DA7B
:104F90006442002D00DA6D42002E00DA764200985D
:104FA000002800DA404200900198002800DA4042D0
:104FB00001900298002800DA4042029000990020F7
:104FC0008C4200DA012001998D4200DA401C0299DE
:104FD0008E4200DA401CD7F82C14092900DB401C53
:104FE00004280DD197F8240402280BD901468648DD
:104FF000D7F8282464300AF0A7F801200AF09EF8B8
:105000000DB0F0BD0AF088F8FAE72DE9F0417E4DC9
:1050100000272DED048B06463C4685F824749FED51
:105020007D9B9FED7E8BC5F8287405EB8400D5ED44
:105030000F0A90ED330AB4EEE00AF1EE10FA1EDB2F
:1050400095ED140B53EC182B51EC100B0EF0B6FD34
:1050500041EC100B05F024FC53EC192B51EC100B18
:105060000EF064FB0BD295F824040121401C85F856
:105070002404D5F82804A1400843C5F82804641C7A
:10508000E4B2032CD1D395F82404B8B3002406EB82
:10509000C40090ED000B51EC100B0EF0EDFA05EB97
:1050A0008401641CE4B24866032CF0D3C5F82C7468
:1050B000A868042802DA95F82404A86095F8240466
:1050C00003281BD15749E868884217DC95ED140B7B
:1050D00053EC182B51EC100B0EF070FD41EC100B43
:1050E00005F0DEFB53EC192B51EC100B0EF01EFB00
:1050F00004D2A868032801D10420A8604A4928697D
:1051000088421DDA4949E868884219DC95ED140B9C
:1051100053EC182B51EC100B0EF050FD41EC100B22
:1051200005F0BEFB9FED421B51EC100B53EC112B15
:105130000EF0FCFA04D2A868042801D10520A8606A
:10514000BDEC048BBDE8F0812DE9F0412E4C074603
:10515000D4F8A404012802D000252846F2E73649F5
:10516000F7EE000AA1F1E800B7EE000A0646FBF7E9
:10517000B2FA254A3046503202F5AC71FBF74DFDCC
:105180000500EAD06068401C606094ED140B51EC9F
:10519000100B0EF071FAB96E09F0E7FB00EE100A81
:1051A000DFED260AB8EEC00A20EE200A10EE100A43
:1051B0000EF0EEFDC4E9140194ED6A0B51EC100BF6
:1051C0000EF05AFAA06594ED6C0B51EC100B0EF03A
:1051D00053FAE06594ED6E0B51EC100B0EF04CFAA7
:1051E000206694ED680B9FED161B51EC100B53ECF1
:1051F000112B0EF0D5FBB0D231469FED130AF0EE25
:10520000400A23E000401CC65053012000401C46C9
:10521000A05601209A9999999999B93F00000000E8
:105220000000F03FAE47E13D00007A43BC74933C80
:105230009CC420B07268913F18550120000080374F
:10524000000000000070A740CDCCCC3E0846FBF724
:1052500042FA82E7D0ED030A90ED040A0021012210
:10526000F4EEC00A0223F1EE10FA12DD90ED051AF9
:10527000F4EEC10AF1EE10FA0BDDB4EEC10A0164DE
:10528000F1EE10FA02DBC0E911237047C0E91132D8
:105290007047B4EEE00AF1EE10FA12DD90ED051A57
:1052A000B4EEC10AF1EE10FA0BDDF4EEC10A0264AD
:1052B000F1EE10FA02DBC0E911137047C0E91131B9
:1052C0007047F4EEC00A0364F1EE10FA02DBC0E9A5
:1052D00011127047C0E911217047002319469FED54
:1052E000FE0AC36400EB8102491C82ED000A82EDD4
:1052F000090A0329F6DB0121C0E91D13704730B507
:1053000004461420A0650A202066002584F8705009
:105310002046FFF7E2FF656530BD70B52DED048BCB
:1053200086B06946FFF79EFD9FEDEC8B1FED3D9A21
:1053300000246E4603AD56F8240000EE100A05EB7B
:105340008400B8EEC00A20EE090A80ED000A20EEC3
:10535000000A10EE100A0EF01BFD53EC182B0DF096
:1053600043FF41EC180B641C032CE4DBB0EE480A4D
:10537000F0EE680A05F04AFDDA4EB0EE408AF0EE33
:10538000608A002455F824000EF002FD53EC182B1F
:105390000DF0DEFF0DF0F6FE00EE100A06EB8400C5
:1053A00000F58060641CD0ED0C0A032C30EE200A5E
:1053B00080ED0C0AE6DBD6F88404401CC6F88404B1
:1053C0000120C6F8AC0406B0BDEC048B70BD70B50E
:1053D00005462DED028B86B004AA03A9684609F0A4
:1053E000CBF99FEDBE8B00246E4606EB840090ED5A
:1053F000000A20EE000A10EE100A0EF0C9FC53EC71
:10540000182B0DF0F1FE41EC180B641C032CECDBA7
:10541000B0EE480AF0EE680A05F0F8FCB0EE408AFB
:10542000F0EE608A002456F824000EF0B1FC53EC34
:10543000182B0DF08DFF0DF0A5FE00EE100A05EB08
:105440008400641CD0ED000A032C30EE200A80EDAD
:10545000000AE8DB686D401C68650120E86706B05B
:10546000BDEC028B70BDF0B504460021F7EE001ACA
:105470009FED992A94ED140A04EB8100B8EEC01A4E
:10548000D0ED000A80EE810AB5EEC00AF1EE10FA06
:1054900002DBB0EE401A01E0B1EE401AD0ED060A90
:1054A000F5EEC00AF1EE10FA01DAF1EE600A71EEE3
:1054B000600AC0ED0C0A80ED060A94ED0F1AD0EDDB
:1054C000092A71EE610A00EEA20AC0EE010AC0EDDF
:1054D000090AF5EEC00AF1EE10FA01DAF1EE600AFF
:1054E000C0ED030A491C80ED002A0329C2DB2046D7
:1054F000FFF7B0FEE06CB0F57A7F01DA401CE064A3
:1055000094F8707000210526042303250122206CE5
:10551000062F09D2DFE807F00309102B5237626724
:10552000A267E16484F87020F0BDE06F0128FBD130
:10553000022084F870000DE004EB8000D4ED190A1D
:1055400090ED030AB4EEE00AF1EE10FA04DB84F801
:10555000703031E0A167F0BDD4ED1A0AB4EEE00A74
:10556000F1EE10FA22D934E06267A267F0BD04EBD5
:105570008000D4ED190A90ED030AB4EEE00AF1EED2
:1055800010FAE4DAF0BD04EB8000D4ED1A0A90EDD5
:10559000030AB4EEE00AF1EE10FA07D9006B524E9E
:1055A000B04206D9216EE06C8842EBDB84F8705083
:1055B000DAE784F87030E1646167CBE704EB8000E0
:1055C000D4ED1B0A90ED030AB4EEE00AF1EE10FAF6
:1055D000D8D884F87060E164C6E710B5044600EEE0
:1055E000104AB8EEC00ADFED410A20EE200A9FED16
:1055F000401AC0EE010AB6EE000A20EE800A10EE54
:10560000100A0EF0C5FB41EC100B05F03DF89FEDC4
:10561000391B51EC100B53EC112B0EF0C3F80EF0AC
:105620002BF801462F48C0E9204110BD2DE9F04F6D
:1056300000242DED028B91B0054604940594069448
:10564000C06E44F62061274E884206DBD6F88010F3
:10565000884210D0FFF7C1FF0DE0D6F84823104470
:10566000C6F8480388427DDBE96E814201D0FFF72E
:10567000B4FFC6F84843286BC6F8B0042846FFF7C5
:105680004CFE06F5906003C8814204DB1B48FFF71F
:10569000EAFEC6F88444D6F8A804012802D12846B8
:1056A000FFF703FCD6F8A40401285BD104A808F096
:1056B000E1FF9DED040ADDED050A20EE000A00EE93
:1056C000A00ADDED060A00EEA00A05F0DCFB86ED7F
:1056D000030ADFED0B0A15E00000000000000000E7
:1056E0000000000050530120CDCC4CBD368D27402A
:1056F00000247449000000000000D04180570120C0
:105700000000804620EE200AC149A146ADF82040A5
:10571000BDEEC00A099110EE100AADF81C00ADF8FC
:105720001E4007A8FDF7BEFA684608F0E5FF316F96
:10573000009809F01AF90446716F019809F015F9FB
:105740000444B16F029809F010F90444F16F039812
:1057500009F00BF904EB00089DE80F0000240DF19F
:10576000340A00E0A2E006F170079FEDAA8A87E8FC
:105770000F000DF1280B05EB4407A96E37F8480F11
:10578000000409F0F2F800EE100A4AF8240006EBD3
:105790008400B8EEC00A20EE080A80ED050A3888B9
:1057A00001044BF82410641CE4B2032CE3D39848A2
:1057B0000AA9E8380446FBF75EF83168D6F82803F2
:1057C000884273DB95ED390AD6ED360AB8EEC00A89
:1057D000F5EEC00A20EE080AF1EE10FA05D070EEE0
:1057E000600AF0EEE00AC6ED370A86ED360AB068C8
:1057F000062818D2DFE800F0030303030D249FED11
:10580000860AC82086ED0E0AB7EE000A86ED0F0A5A
:1058100008E09FED820A86ED0E0A9FED810A642062
:1058200086ED0F0A3064288EC005099812D4FDF762
:1058300048F90EF0DBFA00EE100A5FED530A11E0B2
:105840009FED780A86ED0E0A9FED770A322086EDED
:105850000F0AE7E7FDF78FF80EF0C8FA00EE100A1E
:10586000DFED720A982180EE201A86ED041A09985D
:1058700000F0D2FBD6F88410414543DA96ED040AD5
:10588000B5EEC00AF1EE10FA3CDDD6ED0E0AB4EE2C
:10589000E00AF1EE10FA35D2316C7068884206DA0F
:1058A0002846FFF751FC002859D00CE056E060492B
:1058B000D6F8B000884206DB2846FFF745FC0028F2
:1058C0004DD0C6F80490002006EB8001401C91EDFD
:1058D000050AC0B281ED2D0A0328F5D3FFF7A5FA1A
:1058E000002006EB8001401C91ED080AD1ED0B0A67
:1058F000C0B2032830EE600A81ED330AF1D34D487F
:10590000FFF783FB002006EB8001401C91ED260A87
:10591000D1ED050AC0B2032830EE600AB0EEC00A2D
:1059200081ED290AEFD396ED290AD6ED2A0A002047
:1059300030EE200AD6ED2B0A30EE200A86ED2C0A36
:1059400006EB8001401C91ED050AC0B281ED260AEC
:105950000328F5D3E821204600F05EFB002011B0BB
:10596000BDEC028BBDE8F08F10B54FF49761324863
:1059700000F052FB304C0A20206040072067FFF700
:1059800043FA04F58660FFF7BAFC2068C4F8800487
:105990009FED2A0A04F580601E2180ED1B0A9FED11
:1059A000280AC4F88C1480ED260A9FED260A80EDA3
:1059B000250A9FED250A80ED270A1920FDF722FC14
:1059C000002010BD012240F25231AFF29F3009F0A9
:1059D00075BAAFF2A73009F035BD10B5FFF7C4FFB7
:1059E000002805D1AFF22300BDE8104009F02ABB22
:1059F00010BD10B5AFF2CB3009F024FDAFF23B0083
:105A0000BDE8104009F050BD0B48806870470000A9
:105A100000560120000080370080BB440000964300
:105A20009A99993F000070423333B33F0050C34707
:105A3000CDCC4C3DF85401205053012000000042D1
:105A4000CDCCCC3ECDCC4C3F3333333F7047B2F15D
:105A500020030AD5C2F1200301FA02F120FA03F370
:105A600000FA02F041EA0301704700FA03F14FF037
:105A700000007047B2F120030AD5C2F1200320FADA
:105A800002F001FA03F341FA02F140EA0300704721
:105A900041FA03F04FEAE171704710B54C1084EA07
:105AA000530404D54042C1F1000138BF491E1B42D6
:105AB00004D55242C3F1000338BF5B1E00F0D7FA91
:105AC00014F0804F04D04042C1F1000138BF491E9C
:105AD00014F0004F04D05242C3F1000338BF5B1EE4
