:020000040800F2
:100000008855012011030008091B0008011B000886
:10001000051B0008850D0008A7230008000000004C
:100020000000000000000000000000005102000875
:10003000211A000800000000AD020008291E000877
:100040002B0300082B0300082B0300082B030008D8
:100050002B0300082B0300082B0300082B030008C8
:100060002B0300082B0300082B0300082B030008B8
:100070002B0300082B0300082B0300082B030008A8
:100080002B0300082B0300082B0300082D0F00088A
:10009000890D00082B0300082B0300082B03000820
:1000A0002B0300082B0300082B0300082B03000878
:1000B0002B0300082B0300082B0300082B03000868
:1000C0002B0300082B0300082B0300082B03000858
:1000D0002B0300082B0300082B03000895200008C1
:1000E0002B0300082B0300082B0300082B03000838
:1000F0002B0300082B0300082B0300082B03000828
:100100002B0300082B0300082B0300082B03000817
:100110002B0300082B0300082B0300082B03000807
:100120002B0300082B0300082B0300082B030008F7
:100130002B0300082B0300082B0300082B030008E7
:100140002B030008490F00082B0300082B030008AD
:100150009D1500082B030008CD1600085521000846
:100160002B0300082B0300082B0300082B030008B7
:100170002B0300082B0300082B03000800000000DD
:100180002B0300082B0300082B0300082B03000897
:100190002B0300082B0300082B0300082B03000887
:1001A00000000000000000002B03000800F002F82F
:1001B00000F03EF80AA090E8000C82448344AAF1C3
:1001C0000107DA4501D100F033F8AFF2090EBAE8C1
:1001D0000F0013F0010F18BFFB1A43F0010318477B
:1001E000B04B0000D04B0000103A24BF78C878C153
:1001F000FAD8520724BF30C830C144BF04680C602D
:10020000704700000023002400250026103A28BF74
:1002100078C1FBD8520728BF30C148BF0B60704778
:10022000002070471FB504F0A3FD1FBD10B510BD21
:1002300000F05EFA1146FFF7F5FF02F04FFB00F009
:100240007CFA03B4FFF7F2FF03BC02F0B5F800003C
:100250002C4B19680868B0E8F04F80F30988BFF3A9
:100260006F8F4FF0000080F311887047000000008E
:1002700008480068006880F308884FF0000080F3A9
:10028000148862B661B6BFF34F8FBFF36F8F00DF84
:1002900000BF00BF08ED00E0DFF80C00016841F48A
:1002A00070010160704700BF88ED00E0EFF3098046
:1002B000BFF36F8F134B1A681EF0100F08BF20EDAD
:1002C000108A20E9F04F106009B44FF0500080F31D
:1002D0001188BFF34F8FBFF36F8F03F0E7FE4FF02E
:1002E000000080F3118809BC19680868B0E8F04F75
:1002F0001EF0100F08BFB0EC108A80F30988BFF31E
:100300006F8F704738000020EFF3058070470000C2
:100310000948804709480047FEE7FEE7FEE7FEE799
:10032000FEE7FEE7FEE7FEE7FEE7FEE704480549D5
:10033000054A064B70470000391E0008AD01000851
:1003400088410120885501208851012088510120D1
:10035000704700000FB4044910B503AA029800F0DA
:10036000ADF910BC5DF814FB200000202DE9F05F12
:10037000894604464FF0000ADFF874B1FB44C0F828
:1003800020A02046E1688847002874D0252806D0A0
:10039000D4E901219047206A401C2062F1E7002641
:1003A0005F462046E16888472028054607DB312D57
:1003B00005D2781910F8200C08B10643F1E7B00710
:1003C00001D526F00406C4F81CA00027C4F818A024
:1003D0002A2D09D0284601F0E8FF38B304EB87083E
:1003E000303DC8F8185019E059F8041B204604EBBA
:1003F00087029161E1688847012F054618D1E069BD
:10040000002820DA26F020061DE0D8F8180000EBBE
:10041000800005EB40003038C8F818002046E1683D
:100420008847054601F0C1FF0028EED1012F0AD010
:100430002E2D08D12046E16888477F1C0546022FF3
:1004400046F02006C4DBA069002803DA404246F0EB
:100450000106A061F00701D026F010066C2D0BD02C
:10046000682D09D04C2D39D06A2D35D0742D35D05A
:100470007A2D33D016E038E0E1682F4620468847D1
:10048000B842054609D16C2F26D04FF48060E16850
:10049000064320468847054604E06C2F1AD04FF4E7
:1004A000807006430DB3A5F14100192802D820350C
:1004B00046F400664A462946204626604E46FFF727
:1004C000AFFE80B101280BD0F61D26F0070000F129
:1004D000080956E74020E4E78020D8E70020D6E767
:1004E00006F104094DE7284652E7206ABDE8F09F6F
:1004F000FE490000032A40F2308010F0030C00F0A7
:10050000158011F8013BBCF1020F624498BF11F84D
:1005100001CB00F8013B38BF11F8013BA2F1040206
:1005200098BF00F801CB38BF00F8013B11F003037E
:1005300000F02580083AC0F0088051F8043B083AE2
:1005400051F804CBA0E80810F5E7121D5CBF51F884
:10055000043B40F8043BAFF30080D20724BF11F8FE
:10056000013B11F801CB48BF11F8012B24BF00F863
:10057000013B00F801CB48BF00F8012B704710B5D4
:10058000203AC0F00B80B1E81850203AA0E818508B
:10059000B1E81850A0E81850BFF4F5AF5FEA027C4C
:1005A00024BFB1E81850A0E8185044BF18C918C0BB
:1005B000BDE810405FEA827C24BF51F8043B40F85C
:1005C000043B08BF7047D20728BF31F8023B48BF41
:1005D00011F8012B28BF20F8023B48BF00F8012B7F
:1005E000704702F0FF0343EA032242EA024200F0AE
:1005F00002B84FF000020429C0F0128010F0030C82
:1006000000F01B80CCF1040CBCF1020F18BF00F805
:10061000012BA8BF20F8022BA1EB0C0100F00DB8B4
:100620005FEAC17C24BF00F8012B00F8012B48BF12
:1006300000F8012B70474FF0000200B513469446B6
:100640009646203922BFA0E80C50A0E80C50B1F12A
:100650002001BFF4F7AF090728BFA0E80C5048BF3E
:100660000CC05DF804EB890028BF40F8042B08BFDC
:10067000704748BF20F8022B11F0804F18BF00F8D8
:10068000012B7047704770477047704701694A1CDB
:1006900002610878704700B58FB0CDE901310021C3
:1006A000059105497944CDE9031011466846FFF7E5
:1006B0005DFE0FB000BD0000E5FFFFFF074B70B50A
:1006C0000D467B44FFF7E7FF0446284600F008F894
:1006D00010B14FF0FF3070BD204670BD671F0000A5
:1006E000007B00F0800070470048704728410120DF
:1006F0007546FFF7F9FFAE4605006946534620F000
:100700000700854618B020B5FFF710FEBDE8204071
:100710004FF000064FF000074FF000084FF0000BBD
:1007200021F00701AC46ACE8C009ACE8C009ACE870
:10073000C009ACE8C0098D46704710B50446AFF358
:1007400000802046BDE81040FFF77BBD00B587B0B4
:100750000121480601F030FA0121880601F02CFA47
:1007600000208DF816008DF8170001208DF8180074
:1007700000208DF819008DF81A008DF81B008DF8F7
:1007800012000520ADF8100001208DF813000420A0
:100790008DF8140002208DF8150004A92A4800F0F5
:1007A0005EFD00208DF80A0001208DF80D0000206C
:1007B000ADF808008DF80C00ADF80000ADF80200AF
:1007C000ADF80400ADF806008DF80B00684600F0A7
:1007D00029FC01208DF8170000208DF818008DF8F5
:1007E0001A008DF816008DF819008DF81B008DF891
:1007F00012000520ADF8100001208DF81300042030
:100800008DF8140002208DF8150004A90F4800F09F
:1008100026FD0E208DF80A0001208DF80D00ADF8A0
:1008200008008DF80C000020ADF80000ADF80200C3
:10083000ADF80400ADF806008DF80B00684600F036
:10084000F1FB07B000BD00000064004000680040FC
:1008500000B58FB00121880501F09EF9484800F0ED
:1008600085FF00BF464801F02DF80028FAD14FF06F
:10087000206000904348019043480290402003903C
:100880004FF47A700490002005904FF48060069039
:1008900000200790089009904FF480300A900020C3
:1008A0000B9003200C9000200D900E906946344868
:1008B00001F088F80121324800F04CFF30487838C8
:1008C00000F054FF00BF2E48783800F0FBFF0028EE
:1008D000F9D14FF47A7004904FF02060009000201E
:1008E00003900B9003200C902848029000200D905C
:1008F00008904FF4806006900020099021480190F4
:1009000000200E90079005904FF480300A906946C1
:100910001B48783801F056F801211948783800F062
:1009200019FF1748303800F021FF4FF000600090A9
:10093000174801901748029000200390122004905D
:10094000002005904FF480600690002007900890EA
:100950004FF4807009904FF440300A9000200B90C3
:100960000C900D900E9069460548303801F02AF839
:1009700001210348303800F0EDFE0FB000BD00004B
:10098000B864024004140140E0330120F82F012034
:1009900004100140083F01201CB50121022001F094
:1009A000FBF80121082001F0F7F80121402001F0B7
:1009B000F3F80121202001F0EFF80121080201F0F5
:1009C000EBF80121802001F0E7F801208DF8040008
:1009D00000208DF806000E20009001208DF8070001
:1009E00003208DF805006946624801F01AF80E21CF
:1009F000604801F083F88020009002208DF8040008
:100A000000208DF8060003208DF8050000208DF8E9
:100A100007006946584801F004F807221146564875
:100A200001F047F802208DF8040000208DF8060040
:100A30004FF48440009001208DF8070002208DF8CB
:100A4000050069464B4800F0ECFF0822092149489F
:100A500001F02FF808220E21464801F02AF84FF441
:100A60007070009001208DF8040000208DF80600C1
:100A700003208DF8050001208DF8070069463F48E6
:100A800000F0CFFF4FF480713C4801F035F84FF48F
:100A900030713A4801F032F80320009002208DF8BE
:100AA000040000208DF8060003208DF805000120C9
:100AB0008DF807006946324800F0B3FF0922002193
:100AC0002F4800F0F6FF092201212D4800F0F1FF28
:100AD00002208DF8040000208DF806004FF44050ED
:100AE000009001208DF8070003208DF8050069466D
:100AF000214800F096FF09220C211F4800F0D9FF81
:100B000009220D211C4800F0D4FF02208DF80400BA
:100B100000208DF806004FF44060009000208DF812
:100B2000070003208DF805006946164800F079FF9C
:100B300002220B21134800F0BCFF02220A211148B7
:100B400000F0B7FF01208DF8040000208DF80600AA
:100B50001420009002208DF8070003208DF8050076
:100B60006946084800F05DFF1421064800F0C6FF02
:100B70001CBD0000001802400004024000140240A6
:100B8000000C0240001C024008B54FF4407000F019
:100B9000F9FF47208DF8000001208DF8030009209F
:100BA0008DF8010000208DF80200684600F0AEFFCD
:100BB000012240F224412A4801F061FB46208DF8D1
:100BC000000001208DF8030009208DF801000020AD
:100BD0008DF80200684600F099FF0122102121489B
:100BE00000F0D2FE44208DF8000001208DF80300B3
:100BF0000B208DF8010000208DF80200684600F0FF
:100C000085FF012210211748303800F0BDFE142066
:100C10008DF8000001208DF8030009208DF80100F7
:100C200000208DF80200684600F070FF01220221CA
:100C30000D4800F00BFB41208DF8000001208DF8DD
:100C400003000B208DF8010000208DF8020068469B
:100C500000F05CFF01221021044800F0F7FA08BD03
:100C600000140140B8640240006400400068004085
:100C700000B589B00121082000F09EFF0020ADF8EA
:100C80002000ADF81A0040F2CF7007905920ADF85F
:100C9000180006A9124801F0BBF96020ADF8040065
:100CA0000020ADF810000120ADF806004FF47A7076
:100CB000039001A90A4801F0FFF801A9084801F0D2
:100CC00043F90821064801F035F90821044801F0EC
:100CD0008DF90121024801F0E3F809B000BD0000E0
:100CE000000C00401FB50121202000F075FF0121FC
:100CF000102000F071FF4FF4E13000900020ADF8BB
:100D00000C000C20ADF80A000020ADF80800ADF88A
:100D10000600ADF804006946174801F0D5FA012233
:100D20004021154801F078FA01228021124801F093
:100D300073FA0121104801F063FA10480090002076
:100D4000ADF80400ADF806004FF48060ADF808007F
:100D50000420ADF80A000020ADF80C0069460848F0
:100D600001F0B2FA0121064801F04AFA01224021BD
:100D7000034801F051FA1FBD00140140A086010094
:100D80000010014000BFFEE710B5554A002155484C
:100D900000F0EFFA52480068A0F2012008286ED255
:100DA000DFE800F00413233343586E834C494E4868
:100DB00001F0E4FB4C48B0F9040000EE100AB8EE74
:100DC000C00A4A4880ED020A88E04549464820307A
:100DD00001F0D4FB4448B0F9240000EE100AB8EE4C
:100DE000C00A424880ED050A78E03D493E4840305F
:100DF00001F0C4FB3C48B0F9440000EE100AB8EE24
:100E0000C00A3A4880ED080A68E035493648603043
:100E100001F0B4FB3448B0F9640000EE100AB8EEFB
:100E2000C00A324880ED0B0A58E02D49304801F0E5
:100E3000A5FB3048B0F9100000EE100AB8EEC00A69
:100E40002D4880ED7E0A2A4890ED050A2A4880ED5B
:100E50007D0A43E02249294801F090FB2548B0F97A
:100E60000C0000EE100AB8EEC00A234880ED820A9A
:100E7000224890ED050A204880ED810A2EE029E005
:100E800017491F4801F07AFB1D48B0F9040000EE35
:100E9000100AB8EEC00A1B4880ED040A184890ED0D
:100EA000050A194880ED040A18E00D49174801F0B9
:100EB00065FB1648B0F9040000EE100AB8EEC00A4F
:100EC000134880ED040A114890ED050A114880EDA1
:100ED000040A03E010A0FFF73DFA00BF00BF10BDF9
:100EE000AC000020006400404001002020390120B7
:100EF000C0000020C8370120D03C0120E0000020C5
:100F00002001002030400120AC40012000010020E1
:100F1000383F0120B43F01204E6F20666565646252
:100F200061636B2073706565640D0A0010B5012163
:100F3000044800F0FBF818B10121024800F01EF847
:100F400010BD00000064004010B586B001AA012168
:100F5000084800F00EFA002406E00DF10F00005DD5
:100F600005490855601CC4B29DF80E00A042F4DC8F
:100F700006B010BD00680040C0010020B1F5007F40
:100F80003AD00FDC202928D006DC01291CD0042906
:100F90001DD0082940D11DE0402921D0B1F5807F26
:100FA0003AD126E0B1F5004F31D006DCB1F5806FC3
:100FB00025D0B1F5006F2FD124E0B1F5803F12D0DC
:100FC000B1F5003F28D111E0154A826025E00822E2
:100FD000C26022E01022C2601FE0082202611CE011
:100FE0001022026119E00822426016E010224260DD
:100FF00013E00422426010E0042242600DE004226B
:1010000042600AE0002282610422426005E0002280
:1010100082610422426000E000BF00BF7047000010
:101020000101010010B50021837A012202FA03F1C7
:101030003D4A126842F001023B4B1A603A4A1C32A8
:1010400012688A43384B1C331A60027BCAB9364A8D
:101050000C3212688A43344B0C331A604288C388BE
:1010600042EA0343304A4032847A42F834300288FC
:10107000838842EA03432C4A4032847A02EBC4025A
:101080005360027B012A19D1274A0C3212680A43A5
:10109000254B0C331A604288038842EA0343224AF4
:1010A0004032847A42F83430C288838842EA03436B
:1010B0001D4A4032847A02EBC4025360C27A3AB9C4
:1010C000194A121D12688A43174B1B1D1A6006E04D
:1010D000154A121D12680A43134B1B1D1A60028920
:1010E00032B9114A143212688A430F4B14331A6012
:1010F0000289012A06D10C4A143212680A430A4BAB
:1011000014331A60427B012A06D1074A1C32126846
:101110000A43054B1C331A60034A126822F001028D
:10112000014B1A6010BD00000066004070B5044617
:101130000D46002660692840002871D0B5F5807FF3
:101140005CD010DC082D35D006DC012D20D0022D1E
:1011500024D0042D72D127E0102D31D0202D35D090
:10116000402D6BD138E0B5F5004F60D009DCB5F506
:10117000007F49D0B5F5806F4CD0B5F5006F5DD1DB
:101180004FE0B5F5803F2DD0B5F5003F56D12FE0AB
:10119000A0682D4900F0F8F9064651E0E068032107
:1011A00000F0F2F906464BE0E068082100F0ECF9A7
:1011B000064645E0E068102100F0E6F906463FE00B
:1011C0002069032100F0E0F9064639E02069082192
:1011D00000F0DAF9064633E02069102100F0D4F976
:1011E00006462DE06068082100F0CEF9064627E0AB
:1011F0006068102100F0C8F9064621E0A0690121CD
:1012000000F0C2F906461BE0A069022100F0BCF91B
:10121000064615E0A069042100F0B6F906460FE085
:101220000FE0A069702100F0AFF9064608E06068A1
:10123000042100F0A9F9064602E0FFE7002600BFFE
:1012400000E00026304670BD010101001AB143697B
:101250000B43436102E043698B434361704730B500
:10126000024600200023146824F00204146014686D
:1012700044F00104146000E05B1C546804F00104B5
:101280001CB94FF6FF74A342F6D1546804F0010470
:101290000CB900206CE08C79012C04D1146844F066
:1012A0008004146003E0146824F080041460CC7996
:1012B000012C04D1146844F04004146003E0146865
:1012C00024F0400414600C7A012C04D1146844F01A
:1012D0002004146003E0146824F0200414604C7AA5
:1012E000012C04D1146844F01004146003E0146865
:1012F00024F0100414608C7A012C04D1146844F09A
:101300000804146003E0146824F008041460CC7A24
:10131000012C04D1146844F00404146003E0146840
:1013200024F0040414608C78A407CD7844EA0564A2
:101330000D7944EA05444D7944EA05540D886D1E43
:101340002C43D461146824F001041460002300E0ED
:101350005B1C546804F001041CB14FF6FF74A342F7
:10136000F6D1546804F001040CB1002000E0012023
:1013700030BD10B500F5D87303EB01131B6803F003
:1013800004031372137A53B900F5D87303EB0113F6
:101390001B6840F2FF7404EA5353136009E000F540
:1013A000D87303EB01131B686FF0604404EAD303A6
:1013B000536000F5D87303EB01131B6803F00203BD
:1013C000537200F5D87303EB01135B6803F00F034E
:1013D000937200F5D87303EB01135B681B0AD37497
:1013E00000F5D87303EB01139B68D37200F5D87333
:1013F00003EB01139B681C0A147300F5D87303EB0D
:1014000001139B681C0C547300F5D87303EB011394
:101410009B681B0E937300F5D87303EB0113DB6815
:10142000D37300F5D87303EB0113DB681C0A147443
:1014300000F5D87303EB0113DB681C0C547400F542
:10144000D87303EB0113DB681B0E937421B9C368D7
:1014500043F02003C36003E0036943F0200303610A
:1014600010BD10B502460020936803F08063B3F10D
:10147000806F00D110E0936803F00063B3F1006F58
:1014800001D1012008E0936803F08053B3F1805F3D
:1014900001D1022000E00420042874D002F5C073BA
:1014A00003EB00131B6803F0010402F5C07303EBA8
:1014B00000131C600B7A7BB94B7A0C8843EA4453C7
:1014C00002F5C07404EB00142468234302F5C074D1
:1014D00004EB0014236010E00B7A4C6843EAC40369
:1014E0004C7A234302F5C07404EB001424682343B0
:1014F00002F5C07404EB001423608B7A03F00F0331
:101500008B7202F5C07303EB00135B6823F00F04CA
:1015100002F5C07303EB00135C6002F5C07303EBCC
:1015200000135B688C7A234302F5C07404EB00144B
:1015300063608B7B1C064B7B44EA03440B7B44EAD1
:101540000323CC7A234302F5C07404EB0014A36098
:101550008B7C1C064B7C44EA03440B7C44EA03234B
:10156000CC7B234302F5C07404EB0014E36002F566
:10157000C07303EB00131B6843F0010402F5C07352
:1015800003EB00131C6010BD0246002002EA0103B9
:101590000BB1012000E000207047000010B5464963
:1015A000464800F0BFF900287ED04549434800F086
:1015B0009DF84149414800F0B3F84248007841495C
:1015C000497840EA0120C0F30A003F4908800846F4
:1015D0000088A0F5806000B208803A484078C010CA
:1015E0003849897840EA4110C0F30A0036494880FA
:1015F00008464088A0F5806000B248803148807875
:1016000080113049C97840EA81002E49097940EAC1
:101610008120C0F30A002C49888008468088A0F504
:10162000806000B2888027480079401025494979B8
:1016300040EAC110C0F30A002349C8800846C088A8
:10164000A0F5806000B2C8801E4840790011800873
:1016500008721C484079C0F301104872194880791B
:101660001849C97940EA012000B217494881154854
:10167000007A1449497A40EA012001B21248818176
:101680001048807A0F49C97A40EA012001B20E4819
:10169000C1810C48017B0C4801740A48417B0A480F
:1016A00041740848807B00E005E00649C97B40EAB8
:1016B00001200549488210BD00880020886402404E
:1016C00000080020083F0120223F012010B50549F5
:1016D000054800F005F920B14FF03D51024800F0F7
:1016E00005F810BD00800028B86402400246094B8E
:1016F0009A4201D2084801E00648103801F0005330
:101700001BB1064B0B40C36002E0044B0B408360EF
:101710007047000010640240006002407D0F7D0FA2
:101720000246094B9A4201D2084801E006481038A7
:1017300001F000531BB1064B0B40C36002E0044BA9
:101740000B4083607047000010640240006002405C
:101750007D0F7D0F21B1026842F00102026003E0BB
:10176000026822F00102026070470000016821F067
:10177000010101600021016041608160C16001617F
:10178000212141614A49884204D13D21484A103A09
:1017900091608CE046491831884205D14FF474615C
:1017A000434A103A916082E041493031884205D184
:1017B0004FF474113E4A103A916078E03C49483148
:1017C000884205D14FF07461394A103A91606EE059
:1017D00037496031884204D13649354A103AD160E0
:1017E00065E033497831884204D13349304A103AB0
:1017F000D1605CE02E499031884204D12F492C4AB7
:10180000103AD16053E02A49A831884205D14FF0FF
:101810003D51274A103AD16049E02949884204D114
:101820003D21274A083A116041E025491831884294
:1018300005D14FF47461224A083A116037E020491B
:101840003031884205D14FF474111D4A083A1160B5
:101850002DE01B494831884205D14FF07461184A88
:10186000083A116023E016496031884204D11149D9
:10187000134A121F11601AE011497831884204D1CD
:101880000D490F4A121F116011E00D499031884235
:1018900004D10A490A4A121F116008E00849A83118
:1018A000884204D14FF03D51054A121F1160704724
:1018B000106002403D000020400F002000003D204D
:1018C00010640240014600200A6802F001020AB1D9
:1018D000012000E0002070470146486880B2704750
:1018E00030B503460A46002000240B4DAB4201D21E
:1018F0000A4901E00849103902F000550DB14C6861
:1019000000E00C68064D2C4004EA02050DB10120F0
:1019100000E0002030BD0000106402400060024082
:101920007D0F7D0F70B50246002000240025124E69
:10193000B24201D2114B01E00F4B103B104E0E4052
:1019400036B11E2606EAD124166806EA040502E02E
:10195000566906F0800501F000560EB15C6800E0A3
:101960001C68084E344004EA010616B10DB101208E
:1019700000E0002070BD00001064024000600240E2
:101980003C0F3C0F7D0F7D0F10B501F080034BB174
:1019900022B1436943F08003436103E0436923F0CC
:1019A0008003436180290BD02AB1036801F01E0433
:1019B0002343036004E0036801F01E04A3430360B3
:1019C00010BD000010B500220268134B1A40CC680D
:1019D0000B6823434C6923438C692343CC6923431D
:1019E0000C6A23434C6A23438C6A23434C6B234386
:1019F0008C6B23431A430260426922F00702D1E94B
:101A00000B3423431A4342610B6943604B68836084
:101A10008B68C36010BD00003F801CF041607047C0
:101A20007047F0B50A4600210023002400BF3DE0C6
:101A3000012505FA01F3156805EA03049C4234D137
:101A400005684F000326BE40B543056015794E007A
:101A5000B5400668354305601579012D02D015792A
:101A6000022D16D185684F000326BE40B543856020
:101A700055794E00B5408668354385604568012636
:101A80008E40B5434560456896798E40B6B2354381
:101A90004560C5684F000326BE40B543C560D57993
:101AA0004E00B540C6683543C560491C1029BFD3F8
:101AB000F0BDF0B5002300244D07ED0E02FA05F34A
:101AC000CE1000F1200555F826504E07F70E0F26D0
:101AD000BE40B543CF1000F1200646F82750CE1087
:101AE00000F1200555F8265045EA0304CE1000F118
:101AF000200545F82640F0BD4183704701837047BB
:101B000000BFFEE700BFFEE77047000070B5002190
:101B100000230F22C4781CB3174C246804F4E0643B
:101B2000C4F5E064C4F30721C1F10404E3B20A413F
:101B300044789C40E1B28478144021430C07210E84
:101B40000E4C05786155047804F01F050124AC4063
:101B500005786D11AD0005F1E025C5F8004109E0FB
:101B6000047804F01F050124AC40054D0678761179
:101B700045F8264070BD00000CED00E000E400E0F8
:101B800080E100E002490143024A11607047000011
:101B90000000FA050CED00E029B1064A1268024384
:101BA000044B1A6004E0034A12688243014B1A6036
:101BB000704700003038024029B1064A12680243DB
:101BC000044B1A6004E0034A12688243014B1A6016
:101BD000704700004038024029B1064A12680243AB
:101BE000044B1A6004E0034A12688243014B1A60F6
:101BF0007047000044380240F0B500210022002464
:101C0000022500260223324F3F6807F00C0121B164
:101C1000042905D0082937D105E02E4F076036E0AA
:101C20002D4F076033E02A4F3F1F3F68C7F38056B0
:101C3000274F3F1F3F6807F03F036EB1264FB7FBAA
:101C4000F3F7DFF88CC0ACF1040CDCF800C0CCF387
:101C5000881C07FB0CF40CE01E4FB7FBF3F7DFF812
:101C600070C0ACF1040CDCF800C0CCF3881C07FB9E
:101C70000CF4174F3F1F3F68C7F301477F1C7D00DF
:101C8000B4FBF5F7076002E0124F076000BF00BF2A
:101C90000F4F3F6807F0F0010909104F7A5C0768A1
:101CA000D74047600A4F3F6807F4E051890A0B4F5D
:101CB0007A5C4768D7408760054F3F6807F460410A
:101CC000490B064F7A5C4768D740C760F0BD0000FB
:101CD000083802400024F400001BB7002600002052
:101CE0000CB50020019000904148006840F480301D
:101CF0003F49086000BF3E48006800F40030009093
:101D00000198401C0190009818B90198B0F5A04FB7
:101D1000F1D13748006800F4003010B10120009084
:101D200001E0002000900098012860D13048403048
:101D3000006840F080502E49403108602D4800680E
:101D400040F440402B490860294808300068284981
:101D5000083108600846006840F400400860084602
:101D6000006840F4A05008602348091F0860081F5D
:101D7000006840F08070091F086000BF1C480068C0
:101D800000F000700028F9D01A48006840F4803054
:101D90001849086000BF1748406800F480300028E8
:101DA000F9D01448006840F400301249086000BFC0
:101DB0001048406800F400300028F9D040F2057067
:101DC0000E4908600A480830006820F003000849FE
:101DD000083108600846006840F00200086000BF53
:101DE00003480830006800F00C000828F8D10CBD4A
:101DF00000380240007000400C5A4007003C02408E
:101E0000042808D14FF0E021096941F004014FF0A6
:101E1000E022116107E04FF0E021096921F004019F
:101E20004FF0E0221161704710B502F047FD012824
:101E300001D002F035FA10BD10B51548006840F425
:101E40007000134908601348006840F00100114910
:101E5000086000200F49083108600E4800680E49EC
:101E600008400C4908600D48091D0860081F0068FB
:101E700020F48020091F0860002006490C3108600A
:101E8000FFF72EFF4FF0006001498039086010BD58
:101E900088ED00E000380240FFFFF6FE103000241D
:101EA00021B1028842F00102028004E002884FF66C
:101EB000FE731A400280704770B500240022002390
:101EC000058C4FF6FE7635400584028C8388048BA2
:101ED0004FF68F752C40B51E2C400D882C43751E77
:101EE0002A408D892A434D882A43104DA84202D0AA
:101EF0000F4DA84213D14FF6F7752A40CD892A43DA
:101F00004FF6FB752A408D882A434FF6FF652B401C
:101F10004FF6FF552B400D8A2B434D8A2B43838070
:101F200004838D684563028470BD00000000014099
:101F3000000401400A460021018B4FF6F773194057
:101F4000114301837047000070B500240022002374
:101F5000058C4FF6EF7635400584028C8388048B20
:101F600048F6FF752C404FF6FF452C400D884FF684
:101F7000FF7606EA05252C434FF6DF752A408D894A
:101F800006EA05152A434D8806EA05152A43154D2C
:101F9000A84202D0144DA8421DD14FF67F752A40A9
:101FA000CD894FF6FF7606EA05152A434FF6BF7531
:101FB0002A408D8806EA05152A434FF6FF352B4047
:101FC0004FF2FF752B400D8A06EA85052B434D8A9B
:101FD00006EA85052B43838004838D68856302842C
:101FE00070BD000000000140000401400A460021CD
:101FF000018B4FF2FF7319404FF6FF7303EA022380
:102000001943018370474163704781637047000043
:1020100000220288184B98420ED0184B98420BD0E1
:10202000B0F1804F08D0164B984205D0154B98421E
:1020300002D0154B984204D14FF68F731A404B884B
:102040001A43124B984207D0114B984204D04FF6D6
:10205000FF431A400B891A4302804B68C3620B8806
:102060000385054B984202D0044B984201D18B7AEC
:102070000386012383827047000001400004014071
:102080000004004000080040000C00400010004028
:102090000014004010B540F225511D4800F0C5F86D
:1020A00010B31B4800F07AF9C4B21A48008800F453
:1020B0000040C8B91748008800F4804060B10A2C7D
:1020C00003D000201349088020E01248008840F423
:1020D00000401049088019E00D2C06D10D480088F9
:1020E00040F480400B49088010E00A480088C0F3A3
:1020F0000D0009490C5407480088401C0549088018
:1021000008460088C72801DD0020088010BD0000B7
:1021100000480040240000200002002010B50446C2
:1021200000210B48FFF716FB00BF0948FFF7CAFB69
:102130000028FAD121460648FFF770FC4FF03D51C8
:102140000348FFF7D3FA01210148FFF703FB10BD55
:10215000B864024070B500BF002440F2244120481A
:1021600000F063F8002839D01D480088C5B21C482B
:10217000001D0088C5B200211A48FFF7EBFA194884
:10218000FFF7AAFB18490988081A18490880164859
:1021900001881448FFF742FC15491248FFF7A6FAD8
:1021A00005E01448005D14490855601CC4B20F488E
:1021B00001880088401E0D4A10800029F1D1204678
:1021C000FFF7ACFF01210748FFF7C4FA0B4800688E
:1021D00008B9012000E000200849086070BD000037
:1021E00000140140406402407A4D000804000020C1
:1021F00000003D10F82F0120E0330120840243420B
:1022000021B1828942F40052828104E082894DF634
:10221000FF731A40828170471AB1838A0B4383820D
:1022200002E0838A8B438382704770B502460024A4
:1022300000230025002040F66A16B14200D100BFFD
:10224000C1F3421501F01F03012606FA03F3012D25
:1022500002D19689334006E0022D02D1168A33401E
:1022600001E0968A33400C12012606FA04F416881F
:10227000344013B10CB1012000E0002070BDF0B576
:102280000346002400260025002040F66A17B942C4
:1022900000D100BF1846C1F3421401F01F06012708
:1022A00007FA06F5012C01D10C3004E0022C01D113
:1022B000103000E014301AB107682F43076002E0C5
:1022C0000768AF430760F0BD2DE9FF4705460E469E
:1022D0000024A14600BFA046B08900B100BF2C8AEF
:1022E00024F44054F08804432C82AC8941F20C6001
:1022F0008443B08831890843718908430443AC8121
:10230000AC8A24F44074B0890443AC826846FFF779
:1023100073FC2048854202D01F48854202D1DDF877
:102320000C9001E0DDF80890A88900F4004040B16D
:1023300009EBC90000EB091031684900B0FBF1F767
:1023400007E009EBC90000EB091031688900B0FB18
:10235000F1F76420B7FBF0F004012009642101FBD0
:102360001078A88900F4004040B1322000EBC8008A
:10237000B0FBF1F000F00700044308E0322000EB6E
:1023800008106421B0FBF1F000F00F0004432C8131
:10239000BDE8FF8700100140001401400146888815
:1023A000C0F30800704700BFFEE730380A2801D2AA
:1023B000012070470020704700BF7047D0ED000A31
:1023C000F4EEC00AF1EE10FA01DD80ED000AD0ED66
:1023D000000AB1EE401AF4EEC10AF1EE10FA03D28F
:1023E000F1EE400AC0ED000A70470000F0B585B07C
:1023F00004460D4616461F4640F2FF10009000208E
:102400008DF808008DF8090008208DF80A00200AD0
:102410008DF80B00E1B28DF80C10290A8DF80D1023
:10242000E9B28DF80E10310A8DF80F10F1B28DF867
:102430001010390A8DF81110F9B28DF81210694692
:102440000248FFF70EF805B0F0BD00000064004040
:1024500070B504460420FFF7D3FC0C4804702546F1
:102460004FF47A7045430120094908804FF0E0207D
:10247000006940F002004FF0E02108610846456124
:10248000006940F00100086170BD00001C000020E0
:102490001E00002070B5044602F010FA012810D08A
:1024A0000B480088844206D309480088B4FBF0F545
:1024B000284601F0B3FC06480088B4FBF0F100FBAD
:1024C00011444FF47A7104FB01F000F003F870BD81
:1024D0001E00002070B5034600224FF0E02675690B
:1024E0000D4E367803FB06F44FF0E026B16910E09C
:1024F0004FF0E026B06988420BD0884202D20E1A13
:10250000324402E02E1A0E4432440146A24200D365
:1025100000E0EDE700BF70BD1C00002010B51048C2
:10252000007A012804D0022809D003280DD100E048
:102530000BE09FED0C0A0C4880ED030A05E09FEDCF
:102540000B0A094880ED030A00BF00BF084906488E
:1025500000F0E2F90749084800F0DEF910BD00007C
:10256000223F01200000FA44383F01200000000013
:10257000B43F0120AC40012030400120028842805D
:102580000A7BCB7A42EA0322028002884388D21A6D
:10259000B2F5805F09DD8268521E8260028843883E
:1025A000D21AA2F50052C26113E002884388D21AFF
:1025B00012F5805F09DA8268521C826002884388C3
:1025C000D21A02F50052C26103E002884388D21A8F
:1025D000C261028800EE102AB8EE400ADFED120A4E
:1025E00080EE201A80ED051A0388826803EB4232E0
:1025F000038BD21AC26090ED030AB8EEC00ADFED79
:102600000A0A80EE201ABDEEC10A80ED040A8B7B17
:102610004A7B43EA022212B282800B7CCA7B43EAE5
:10262000022212B2C2807047610BB64100BF054A58
:10263000128802F04002002AF9D0C2B2014B1B1DE1
:102640001A8070470014014070B504460D462146BB
:102650000348FFF7D8FC29460148FFF7D6FC70BDB8
:10266000000C004038B5044640F6B8309FED1E1A05
:10267000F8EE080A9FED1D0A034600220321009090
:10268000204600F0FDFB47F230509FED191ADFEDB8
:10269000180AB2EE000A034600220321009004F15A
:1026A0007C0000F0EDFB4FF4FA609FED121AF0EEA3
:1026B000080A9FED110A034600220321009004F14D
:1026C000F80000F0DDFB41F288309FED091ADFEDE4
:1026D0000B0AB7EE000A034600220321009004F51E
:1026E000BA7000F0CDFB38BD000048C3000016C32F
:1026F000000000000000C84300001643CDCCCC3DD4
:1027000010B504464948007A012804D0022863D055
:10271000032862D100E060E04448407A012804D0F8
:10272000022856D0032855D100E053E03F48B0F9C5
:10273000020000280FDB3D48B0F9020000EE100A4D
:10274000F8EEC00A9FED3A0A9FED3A1A01EE200A10
:1027500084ED410A13E03548B0F9020000280EDA92
:102760003248B0F9020000EE100AF8EEC00A9FED00
:10277000300A9FED311A01EE200A84ED410A2B4800
:10278000B0F9000000280FDB2848B0F9000000EE87
:10279000100AF8EEC00A9FED290A9FED291A01EEF2
:1027A000200A84ED030A13E02048B0F90000002855
:1027B0000EDA1E48B0F9000000EE100AF8EEC00A6A
:1027C0009FED1E0A9FED1F1A01EE200A84ED030AF9
:1027D00000E000BF00BF00E000BF00BF9FED170A90
:1027E00084ED030A9FED120A84ED410A214604F1AB
:1027F0007C0000F091F804F1F80104F5BA7000F0E3
:102800008BF894ED0F0ABDEEC00A10EE100A01B26B
:102810004FF4FE70015394ED4D0ABDEEC00A10EE68
:10282000100A01B24FF40370015310BD223F012082
:102830000000164347C609BDCA261BBD0000AD42B5
:10284000EFEE6EBD898888BD1748FFF70BFF01F0DA
:1028500021F928E0144800F02FF81348FFF750FF43
:1028600001F0E8F8114890ED0F0ABDEEC00A10EE35
:10287000100A03B20E4890ED0F0ABDEEC00A10EE2A
:10288000100A02B20848B0F90C120020FFF7AEFDA2
:102890000848006808B9012000E0002005490860E8
:1028A0000A2001F0BBFAD5E7D03C0120383F0120D7
:1028B000304001208C02434290ED7D0A80ED040AF5
:1028C00090ED7E0A80ED230A90ED810A80ED420AA8
:1028D00090ED820A80ED610A704700001CB501F09E
:1028E00017F96420FFF7D6FD0648022100230A02EB
:1028F000CDE9001004A1074801F0B0FF01F084FB0E
:1029000000BFFEE70000002073746172745F7461A1
:10291000736B0000D13A000800B50246506E0328E0
:102920007DD191ED030AD1ED040A30EE600A81ED0C
:10293000070A91ED000AD1ED070A20EE200A81ED89
:10294000080A91ED090AD1ED010A91ED071A00EE8E
:10295000810A81ED090A91ED070AD1ED060A30EEF0
:10296000600AD1ED020A20EE200A81ED0A0AD1EDBB
:102970001C0AF8EE600AB0EE600A01F12400FFF7CD
:102980001DFD91ED080AD1ED090A30EE200AD1EDC6
:102990000A0A30EE200A81ED0F0AD1ED1B0AF8EE8B
:1029A000600AB0EE600A01F13C00FFF707FD91ED0F
:1029B000070A81ED060A906E022801D0906E40B998
:1029C00091ED0F0AD2ED040A30EE600A82ED070A9B
:1029D0000AE0906E012807D192ED030AD2ED040AB5
:1029E00030EE600A82ED070A92ED000AD2ED070A86
:1029F00020EE200A82ED080A92ED090AD2ED010AC2
:102A000092ED071A00EE810A82ED090A92ED070A9B
:102A1000D2ED060A30EE600AD2ED020A00E028E0AC
:102A200020EE200A82ED0A0AD2ED1C0AF8EE600AB6
:102A3000B0EE600A02F12400FFF7C0FC92ED080A34
:102A4000D2ED090A30EE200AD2ED0A0A30EE200A51
:102A500082ED0F0AD2ED1B0AF8EE600AB0EE600AB2
:102A600002F13C00FFF7AAFC92ED070A82ED060A8C
:102A700082E1506E04287CD191ED030AD1ED040A65
:102A800030EE600A81ED070A91ED070AD1ED060AE2
:102A900030EE600AD1ED000A20EE200A81ED080A2E
:102AA00091ED010AD1ED070A20EE200A81ED090A15
:102AB00091ED070AD1ED060AB0EE001A01EE600AA8
:102AC000D1ED050A30EE200AD1ED020A20EE200AEF
:102AD00081ED0A0AD1ED1C0AF8EE600AB0EE600A38
:102AE00001F12400FFF76AFC91ED080AD1ED090A13
:102AF00030EE200AD1ED0A0A30EE200A81ED100AEC
:102B000091ED120AD1ED100A30EE200A81ED110A82
:102B1000D1ED1B0AF8EE600AB0EE600A01F1440044
:102B2000FFF74CFC91ED110A81ED120A91ED060AB6
:102B300081ED050A91ED070A81ED060A91ED110A72
:102B4000D2ED040A30EE600A82ED070A92ED070A20
:102B5000D2ED060A30EE600AD2ED000A20EE200A1D
:102B600082ED080A92ED010AD2ED070A20EE200A52
:102B700000E048E082ED090A92ED070AD2ED060A6C
:102B8000B0EE001A01EE600AD2ED050A30EE200A1E
:102B9000D2ED020A20EE200A82ED0A0AD2ED1C0ACA
:102BA000F8EE600AB0EE600A02F12400FFF706FCBE
:102BB00092ED080AD2ED090A30EE200AD2ED0A0A97
:102BC00030EE200A82ED100A92ED120AD2ED100AC0
:102BD00030EE200A82ED110AD2ED1B0AF8EE600AEF
:102BE000B0EE600A02F14400FFF7E8FB92ED110A33
:102BF00082ED120A92ED060A82ED050A92ED070AAD
:102C000082ED060AB8E0506E05287CD191ED030AEA
:102C1000D1ED040A30EE600A81ED070A91ED0B0A4E
:102C2000D1ED070A91ED0D1A00EE810A81ED0B0A34
:102C3000D1ED1C0AF8EE600AB0EE600A01F12C003A
:102C4000FFF7BCFB91ED070AD1ED060A30EE600AF2
:102C5000D1ED0D0A80EE201A81ED0C1A91ED000ADB
:102C6000D1ED070A20EE200A81ED080A91ED010A54
:102C7000D1ED0B0A20EE200A81ED090A91ED020A3E
:102C8000D1ED0C0A20EE200A81ED0A0A91ED080A26
:102C9000D1ED090A30EE200AD1ED0A0A30EE200A01
:102CA00081ED0E0AD1ED1B0AF8EE600AB0EE600A63
:102CB00001F13800FFF782FB91ED070A81ED060A6A
:102CC00091ED0E0AD2ED040A30EE600A82ED070A99
:102CD00092ED0B0AD2ED070A92ED0D1A00EE810A71
:102CE00082ED0B0AD2ED1C0AF8EE600AB0EE600A23
:102CF00002F12C00FFF762FB92ED070AD2ED060A03
:102D000030EE600A00E037E0D2ED0D0A80EE201AC6
:102D100082ED0C1A92ED000AD2ED070A20EE200A8D
:102D200082ED080A92ED010AD2ED0B0A20EE200A8C
:102D300082ED090A92ED020AD2ED0C0A20EE200A79
:102D400082ED0A0A92ED080AD2ED090A30EE200A55
:102D5000D2ED0A0A30EE200A82ED0E0AD2ED1B0AED
:102D6000F8EE600AB0EE600A02F13800FFF726FBC9
:102D700092ED070A82ED060A506E03280DD1906E7F
:102D8000012802D0906E022802D192ED0F0A00BDF8
:102D9000906E70B991ED0F0AF9E7506E042802D1D8
:102DA00092ED110AF3E7506E052802D192ED0E0A5A
:102DB000EDE79FED010AEAE70000000008B541F2E7
:102DC00088309FED1E1ADFED1D0AB2EE000A4300A7
:102DD0000122032100901A4800F052F841F2883095
:102DE0009FED161AF6EE000A9FED160A43F6982399
:102DF000012203210090144800F042F841F288308B
:102E00009FED0E1ADFED0D0AB2EE000A430001221B
:102E1000032100900D4800F033F84FF4FA609FED65
:102E2000071ADFED0B0AB0EE080A41F288330122DF
:102E300003210090074800F023F808BD00000000BF
:102E4000B43F012000004844383F0120AC4001203D
:102E5000CDCCCC3D3040012010B5029C0467C36648
:102E60004166826680ED000AC0ED010A80ED021A1B
:102E700010BD80ED000AC0ED010A80ED021A704716
:102E80002DE9F0412DED048B82B004460D46164627
:102E90001F46B0EE408AF0EE608AB0EE419ADDF84F
:102EA00030800C4860670C48A067CDF80080B0EE19
:102EB000491AF0EE680AB0EE480A3B463246294607
:102EC0002046D4F874C0E04702B0BDEC048BBDE8E6
:102ED000F0810000592E0008732E00082DE9F04102
:102EE00005460E461C4807681C480068001D00F097
:102EF0002DFE50B91948006890F82C100120884028
:102F000017490968814316480160681C38B936B111
:102F100012480168091D134800F056FE1AE07C199A
:102F20000E4800684460BC4207D20C480168091D85
:102F30000D48006800F02EFE0CE008480168091DED
:102F40000A48006800F026FE09480068844201D261
:102F500007480460BDE8F0814C00002038000020E4
:102F600050000020BC030020400000203C00002056
:102F70006800002010B5044600F032FE24480068C6
:102F8000401C234908602348006840B92148046078
:102F90000846006801280DD100F0DEF90AE01E485D
:102FA000006838B91B480068C06AE16A884201D8E5
:102FB0001848046019480068401C18490860084611
:102FC0000068206494F82C10012088401449096896
:102FD000084313490860E16A01EB8101114A02EBE1
:102FE0008100211D00F0F0FD00F024FE0A48006879
:102FF00068B108480068C06AE16A884207D24FF0A9
:10300000805009490860BFF34F8FBFF36F8F10BD29
:1030100048000020380000205400002064000020F8
:10302000500000200803002004ED00E010B500F07F
:10303000D7FD10480068D0B90F4800F09BFD0F483D
:1030400000F098FD0C480E4908600C480D490860D6
:1030500000220C210A2001F03DF9064908600846CB
:10306000006820B108A10348006800F09BFE00F052
:10307000E1FD10BD7C000020D0030020E40300200F
:103080007400002078000020546D72510000000090
:1030900010B516E000F0A4FD0C48C068C468201DFF
:1030A00000F054FD0A480068401E094908600948BC
:1030B0000068401E0749086000F0BCFD204600F093
:1030C0005FF8044800680028E4D110BDA803002080
:1030D000480000204400002070B504460D46206CD6
:1030E00070B1216CE0680144E160D4E902108842CB
:1030F00001D32168E1602846226CE168FDF7FAF906
:1031000070BD2DE9F04104460F4615464FF000080A
:10311000A66B206C48B9206800282CD1A06801F06B
:1031200087FC80460020A06025E07DB93946226CEE
:103130006068FDF7DFF9216C606808446060D4E9DD
:103140000101884217D32068606014E03946226C80
:10315000E068FDF7CFF9216CE068411AE160216871
:10316000E068884203D2216CA068411AE160022D18
:1031700001D106B1761E701CA0634046BDE8F08107
:1031800010B50446206B00F073FD204600F070FD82
:1031900010BD00000146084A126812680AB90122EF
:1031A00000E000220A600A6822B9034A1268D26865
:1031B000106800E0002070477400002030B54FF424
:1031C0009633174800F007042CB1C01D20F007000B
:1031D000134C041B1B1B0246124C22600024114D91
:1031E0006C60D018083820F007000F4C20600024D5
:1031F0000D4D2D686C600C4D2D682C601146441AE5
:103200004C60094C24680C60084D4C682C60084DDB
:103210004C682C604FF00044064D2C6030BD00001F
:10322000F803002088000020900000209800002073
:10323000940000209C00002000BFFFF729FF0648F3
:1032400000680128F9D94FF0805004490860BFF3A5
:103250004F8FBFF36F8FF0E70803002004ED00E00D
:103260002DE9F04106460D4617469846069C0DB9D5
:10327000246000E02760E66325640121204601F018
:1032800057F884F84C80BDE8F0812DE9F05F824664
:103290000E4690469B460A9F0C9C56B900BF502094
:1032A00080F31188BFF34F8FBFF36F8F00BF00BF54
:1032B000FEE74FEA8801A522206BFDF792F9A8F1FD
:1032C0000100216B01EB800929F0070909F00700D3
:1032D00008B9012000E0002050B900BF502080F361
:1032E0001188BFF34F8FBFF36F8F00BF00BFFEE7A2
:1032F000002507E0715D04F134004155705D00B9AF
:1033000002E06D1C0A2DF5D300BF00213D200155C0
:10331000052F00D30427E762A7640020E064201D86
:1033200000F035FC04F1180000F031FC2461C7F115
:103330000500A06164620020206584F854005A46AC
:103340005146484600F028FB20600B9808B10B98C6
:103350000460BDE8F09F000010B5002407E004EB16
:1033600084010F4A02EB810000F004FC641C052C70
:10337000F5D30C4800F0FEFB0B4800F0FBFB0B48BC
:1033800000F0F8FB0A4800F0F5FB0A4800F0F2FBF9
:1033900004480949086004480849086010BD000055
:1033A000080300206C030020800300209403002009
:1033B000A8030020BC0300203C00002040000020A7
:1033C00010B50146164800E0006803688B42FBD345
:1033D0000246436813448B4204D143684C6823443B
:1033E000436001460A464B6813440468A34211D166
:1033F0000C4C03682468A34208D04B6804686468D6
:1034000023444B6003681B680B6005E0054B1B6899
:103410000B6001E003680B60884200D0016010BDC2
:1034200088000020900000202DE9F04104460D4660
:1034300016461F464FF0000865602461B5420CD85F
:10344000F01BA169884202D34FF0010811E0211D51
:103450000948006800F09EFB0BE0BE4204D2BD426A
:1034600002D34FF0010804E0211D0448006800F079
:1034700091FB4046BDE8F0817800002074000020F8
:1034800070B5054600F0ACFBA86B08B9012400E05C
:10349000002400F0CFFB204670BD70B5054600F05B
:1034A0009FFBA86BE96B884201D1012400E0002456
:1034B00000F0C0FB204670BDF8B505460F46164823
:1034C0000068C068C468201D00F040FBE069012866
:1034D0001DD1A06941192B463A462046FFF7A4FFAB
:1034E000A8B1002003462A4601460090204601F07C
:1034F000FDFB064656B900BF502080F31188BFF38C
:103500004F8FBFF36F8F00BF00BFFEE700BF2046A5
:10351000616A8847F8BD00007400002070B586B06D
:103520006AE00398002867DB059C606908B9012000
:1035300000E0002010B9201D00F008FB02A800F0F8
:10354000BBF8054603980A2854D2DFE800F00905C5
:103550000731334F0608323400BF00BF00BF00BF41
:103560000498A269811803462A462046FFF75CFFAB
:10357000E8B12046616A8847E069012817D1002038
:1035800000900498A169421800231946204601F0D2
:10359000ADFB064656B900BF502080F31188BFF33B
:1035A0004F8FBFF36F8F00BF00BFFEE700BF22E069
:1035B00000BF20E000BF0498A061A06908B101200D
:1035C00000E0002050B900BF502080F31188BFF305
:1035D0004F8FBFF36F8F00BF00BFFEE7A069411997
:1035E0002B462A462046FFF71FFF04E0204600F046
:1035F0003FFB00E000BF00BF002203A903480068B2
:1036000001F032F800288CD106B070BD7C0000209B
:10361000F8B505460C4600F041FD684600F04CF850
:103620000646009820BB44B9B54206D801F0B0FA6E
:1036300031462846FFF740FF1CE03CB10E480068C9
:10364000006808B9012000E000200446A91B2246BA
:103650000A48006800F0BCFB01F09AFA50B94FF03C
:10366000805007490860BFF34F8FBFF36F8F01E0B1
:1036700001F08EFAF8BD0000780000207C000020E8
:1036800004ED00E00A490968096809B9012100E070
:10369000002121B14FF0FF31064A116006E00449D4
:1036A0000968C968C868034A41681160704700002A
:1036B0003C0000206800002070B5044601F00EF9BF
:1036C000054607480068854204D200F00BF8012047
:1036D000206001E00020206001480560284670BDA0
:1036E000840000202DE9F84332E024480068C068D7
:1036F000056822480068C068C468201D00F026FAEA
:103700002046616A8847E069012821D1A0694619ED
:10371000AE4207D966602461211D1848006800F098
:1037200039FA15E0002003462A460146009020465B
:1037300001F0DCFA074657B900BF502080F311882A
:10374000BFF34F8FBFF36F8F00BF00BFFEE700BF17
:103750000A480068006808B9012000E0002000283D
:10376000C3D00648D0F800800548006803490860C7
:103770000348C0F80080BDE8F88300007400002012
:10378000780000200E480068401C08B9012000E0C5
:10379000002050B900BF502080F31188BFF34F8F35
:1037A000BFF36F8F00BF00BFFEE700BF502080F364
:1037B0001188BFF34F8FBFF36F8F00BF00BFFEE7CD
:1037C000A000002008B500BF6846FFF7E3FC0446F0
:1037D00020460099FFF71CFFFFF7A0FEF4E770B545
:1037E000044600F0FDF994F9455010E0606A08B90C
:1037F000012000E0002038B904F1240001F07CF938
:1038000018B100F0BFFB00E003E0681E45B2002DD8
:10381000ECDC00BFFF2084F8450000F00BFA00F05C
:10382000DFF994F9445010E0206908B9012000E064
:10383000002048B904F1100001F05EF908B100F071
:10384000A1FB681E45B200E001E0002DECDC00BFEA
:10385000FF2084F8440000F0EDF970BD2DE9F0413F
:1038600004464FF0000800F019FC4648006808B90B
:10387000FFF7A4FC44480068204000286BD1D4B175
:10388000083404F00700B0B104F00700C0F10800EC
:10389000044404F0070008B9012000E0002050B9FA
:1038A00000BF502080F31188BFF34F8FBFF36F8F9D
:1038B00000BF00BFFEE7002C4DD0344800688442B2
:1038C00049D8334E3046056801E02E462D686868B9
:1038D000A04202D228680028F7D12A480068854211
:1038E00039D0306800F10808286830606868001B2B
:1038F000102819D92F1907F0070008B9012000E096
:10390000002050B900BF502080F31188BFF34F8FC3
:10391000BFF36F8F00BF00BFFEE76868001B7860D1
:103920006C603846FFF74CFD184968680968081A4A
:10393000164908600846006816490968884203D29B
:1039400012480068134908600F496868096808430D
:1039500068600020286001F01BF908F0070008B932
:10396000012000E0002050B900BF502080F31188F2
:10397000BFF34F8FBFF36F8F00BF00BFFEE740461E
:10398000BDE8F081900000209C0000209400002001
:103990008800002098000020001F4FF08073036013
:1039A000001F21F001030360001F054B0360143862
:1039B0000260001F6FF002030360203870470000B0
:1039C0008537000880ED030AD0ED040A90ED031A54
:1039D000D0ED001A41EE210AC0ED040AD0ED040A30
:1039E00090ED011AF4EEC10AF1EE10FA04DDD0ED0B
:1039F000010AC0ED040A0CE0D0ED040A90ED021AB1
:103A0000F4EEC10AF1EE10FA03D2D0ED020AC0EDD5
:103A1000040A704780ED010AC0ED020A80ED001A29
:103A2000DFED031AC0ED031AC0ED040A7047000071
:103A30000000000010B5FEF771FD9FED130A13485A
:103A4000FFF7C0FF114890ED040AD0ED010AB4EE73
:103A5000E00AF1EE10FA04DB9FED0B0A0C48FFF7C9
:103A6000B1FF0B4A92ED040ABCEEC00A10EE102A18
:103A700091B2064A92ED040ABCEEC00A10EE102A7A
:103A800090B2FEF7E1FD10BD00009644E03E01203B
:103A9000F43E012010B59FED091ADFED090A9FEDF4
:103AA000090A0948FFF7B6FF9FED041ADFED040A83
:103AB0009FED040A0548FFF7ADFF10BD6F12833A72
:103AC00000007A4400009644E03E0120F43E0120CC
:103AD0001CB5044600F084F80020032103464FF48F
:103AE0008072CDE9001005A1074800F0B7FE074835
:103AF000006800F0C1F900F09DF81CBD67696D62B7
:103B0000616C5F7461736B0049280008000000203D
:103B100010B5B420FEF79CFCFCF73EFFFDF7E2F881
:103B2000FCF796FEFCF712FEFDF7A2F8FDF72CF865
:103B3000FFF744F90020034908600349C1F88802EF
:103B400010BD0000908243420080434201460A6952
:103B5000D1E901309860D1E901035860506888428A
:103B600001D188685060002008611068401E106014
:103B70001068704700F1080141604FF0FF3181602B
:103B800000F10801C160016100210160704700215E
:103B90000161704710B502460B685C1C0CB91069D6
:103BA00007E002F1080000E04068446824689C4295
:103BB000FAD944684C604C68A160886041600A6131
:103BC0001468641C146010BD42684A6093688B607E
:103BD000936859609160086103685B1C03607047DB
:103BE00000BF502080F31188BFF34F8FBFF36F8F5A
:103BF00000BF0E480068401C0C4908600846006879
:103C0000012812D10A480068C0B208B9012000E0BA
:103C1000002050B900BF502080F31188BFF34F8FB0
:103C2000BFF36F8F00BF00BFFEE77047A00000200A
:103C300004ED00E00D48006850B900BF502080F34B
:103C40001188BFF34F8FBFF36F8F00BF00BFFEE738
:103C500006480068401E054908600846006820B90B
:103C6000002080F3118800BF00BF7047A000002033
:103C700070B506463546002E3FD0083D2C461F49FC
:103C800060680968084008B1012000E0002050B9D0
:103C900000BF502080F31188BFF34F8FBFF36F8FA9
:103CA00000BF00BFFEE7206808B9012000E0002047
:103CB00050B900BF502080F31188BFF34F8FBFF37E
:103CC0006F8F00BF00BFFEE70C49606809680840BD
:103CD00098B1206888B909496068096888436060BC
:103CE00000F0DCF906496068096808440449086086
:103CF0002046FFF765FB00F04BFF70BD9C000020E5
:103D00009400002000204FF0E021086188610648FF
:103D100000684FF47A71B0FBF1F0401E4FF0E021E3
:103D200048610720086170470800002070B5FCF763
:103D3000EBFA0446102C16D304F1E02090F8F0536F
:103D400015480078854201DB012000E0002050B9D1
:103D500000BF502080F31188BFF34F8FBFF36F8FE8
:103D600000BF00BFFEE70D48006800F4E0600C49AA
:103D70000968884201D8012000E0002050B900BF46
:103D8000502080F31188BFF34F8FBFF36F8F00BFB8
:103D900000BFFEE770BD0000A40000200CED00E0B5
:103DA000A8000020024600200BE0084B53F83030FA
:103DB00033B9064B43F8301003EBC0035A6002E0FE
:103DC000401C0828F1D300BF70470000C802002043
:103DD0002DE9F04105460E4617462C46FFF700FF39
:103DE00094F94400401C10B9002084F8440094F970
:103DF0004500401C10B9002084F84500FFF71AFF69
:103E0000A06B28B93A46314604F1240000F0DCF8F2
:103E10002046FFF7E4FCBDE8F081000070B50446E1
:103E20000025D4B11248006808B9012000E0002044
:103E300050B900BF502080F31188BFF34F8FBFF3FC
:103E40006F8F00BF00BFFEE700F028F90021204679
:103E5000FFF744F800F09CFE05463DB94FF0805056
:103E600004490860BFF34F8FBFF36F8F70BD000030
:103E70007000002004ED00E070B50546FFF7B0FECD
:103E800015B93048006800E028460446201DFFF7B9
:103E90005DFE78B9E06A00EB80002B4951F8200004
:103EA00040B994F82C1001208840284909688143C2
:103EB00026480160A06A18B104F11800FFF746FE19
:103EC00023480068401C224908601E48006884425C
:103ED00009D1211D1F48FFF777FE1F480068401CCD
:103EE0001D49086009E01D480068401E1B49086024
:103EF0002046FFF745F9FFF7C5FBFFF79BFE184883
:103F00000068E8B10F480068844219D1154800687C
:103F100008B9012000E0002050B900BF502080F314
:103F20001188BFF34F8FBFF36F8F00BF00BFFEE755
:103F30004FF080500C490860BFF34F8FBFF36F8F75
:103F400070BD000038000020080300205000002051
:103F500064000020A8030020440000204800002046
:103F6000540000207000002004ED00E003490968BF
:103F7000016003490968416070470000600000204B
:103F80004C00002001200149086070475C000020BF
:103F900070B504460D4654B900BF502080F3118817
:103FA000BFF34F8FBFF36F8F00BF00BFFEE7054821
:103FB000016818312046FFF7EDFD01212846FEF784
:103FC0008DFF70BD3800002070B505460E461446C2
:103FD00055B900BF502080F31188BFF34F8FBFF356
:103FE0006F8F00BF00BFFEE7064801681831284602
:103FF000FFF7EAFD0CB14FF0FF3621463046FEF7E1
:104000006DFF70BD380000201CB51D4800210B4617
:104010008222CDE900101BA11C4800F01FFC0446C1
:10402000012C02D100F036FE0446012C15D100BF50
:10403000502080F31188BFF34F8FBFF36F8F00BF05
:104040004FF0FF301249086001201249086000203B
:104050001149086000F070F810E0601C08B1012000
:1040600000E0002050B900BF502080F31188BFF35A
:104070004F8FBFF36F8F00BF00BFFEE71CBD000076
:104080006C00002049444C45000000003932000813
:1040900068000020540000204C0000200248006806
:1040A000401C014908607047700000201D480068EE
:1040B00018B101201C49086032E000201A4908604C
:1040C0001A480068B0FA80F0C0F11F0101EB8100CE
:1040D000174A52F8200008B1012000E0002050B932
:1040E00000BF502080F31188BFF34F8FBFF36F8F55
:1040F00000BF00BFFEE701EB81020D4B03EB820026
:1041000042685268426000F108024368934202D15B
:104110004268526842604268D268064B1A6000BF2B
:1041200070470000700000205C000020500000205C
:1041300008030020380000201CB55248006852498E
:10414000884201D0012000E0002050B900BF50207B
:1041500080F31188BFF34F8FBFF36F8F00BF00BF95
:10416000FEE7484800684849491E884201D00120BE
:1041700000E0002050B900BF502080F31188BFF349
:104180004F8FBFF36F8F00BF00BFFEE73F49084668
:1041900000780190FF200A461070084600780090D1
:1041A0009DF8000000F0F0009DF80020904201D141
:1041B000012000E0002050B900BF502080F311889A
:1041C000BFF34F8FBFF36F8F00BF00BFFEE79DF8B7
:1041D000000000F050002E4A107007202D4A106099
:1041E00009E02C480068401E2A4A10609DF8000033
:1041F0004006000E00909DF8000000F0800080282E
:10420000EFD024480068C0F10700042801D1012044
:1042100000E0002050B900BF502080F31188BFF3A8
:104220004F8FBFF36F8F00BF00BFFEE719480068D4
:104230000002184A10601046008800F4E060106028
:10424000124A019810700F482030006840F4700046
:104250000C49203108600846006840F07040086052
:10426000FFF750FD00200C490860FCF715F80B48DB
:10427000006840F0404009490860FBF7F9FF002062
:104280001CBD000000ED00E071C20F4100E400E041
:10429000A4000020A8000020A000002034EF00E0CF
:1042A00010B500BF502080F31188BFF34F8FBFF3CC
:1042B0006F8F00BF00F018FB18B14FF08050044919
:1042C000086000BF002080F3118800BF10BD00000F
:1042D00004ED00E02DE9F84305460E4690460DB189
:1042E000012000E0002050B900BF502080F3118869
:1042F000BFF34F8FBFF36F8F00BF00BFFEE70EB954
:10430000002701E005FB06F707F15000FFF7A6FACA
:1043100004464CB1A14609F1500943464A4631468C
:1043200028460094FEF79CFF2046BDE8F883000075
:1043300070B505460E462C4654B900BF502080F398
:104340001188BFF34F8FBFF36F8F00BF00BFFEE731
:10435000FFF746FCD4E90F12206801FB0200A060C1
:104360000020A06320686060E06B401E226C216822
:1043700000FB0211E160FF2084F8440084F845004E
:104380009EB9206908B9012000E00020A8B904F115
:10439000100000F0B1FB80B14FF080500949086077
:1043A000BFF34F8FBFF36F8F07E004F11000FFF7EB
:1043B000E1FB04F12400FFF7DDFBFFF73BFC0120EC
:1043C00070BD000004ED00E02DE9FF4383B0064618
:1043D00088461D464FF00009344654B900BF5020AE
:1043E00080F31188BFF34F8FBFF36F8F00BF00BF03
:1043F000FEE7B8F1000F01D1206C08B9012000E000
:10440000002050B900BF502080F31188BFF34F8FB8
:10441000BFF36F8F00BF00BFFEE7022D02D1E06B3C
:10442000012801D1012000E0002050B900BF502038
:1044300080F31188BFF34F8FBFF36F8F00BF00BFB2
:10444000FEE700F03BFA08B9059808B9012000E042
:10445000002050B900BF502080F31188BFF34F8F68
:10446000BFF36F8F00BF00BFFEE700BFFFF7B8FBD1
:10447000A06BE16B884201D3022D28D12A46414628
:104480002046FEF73EFE0746606A08B9012000E0BC
:10449000002068B904F1240000F02EFB88B14FF031
:1044A000805032490860BFF34F8FBFF36F8F08E031
:1044B0003FB14FF080502D490860BFF34F8FBFF3DD
:1044C0006F8FFFF7B7FB012007B0BDE8F0830598B9
:1044D00018B9FFF7AFFB0020F6E7B9F1000F04D1E0
:1044E00001A8FFF743FD4FF00109FFF7A3FBFFF71A
:1044F000D5FDFFF775FB94F94400401C10B900206E
:1045000084F8440094F94500401C10B9002084F858
:104510004500FFF78FFB05A901A800F059F9F0B994
:104520002046FEF7BAFFA0B104F110000599FFF78D
:104530002FFD2046FFF753F900F02AFB002895D104
:104540004FF0805009490860BFF34F8FBFF36F8F62
:104550008CE72046FFF743F900F01AFB86E7204678
:10456000FFF73DF900F014FB0020ADE704ED00E09B
:104570002DE9F05F07468A4690461E463C4654B9F0
:1045800000BF502080F31188BFF34F8FBFF36F8FB0
:1045900000BF00BFFEE7BAF1000F01D1206C08B9DF
:1045A000012000E0002050B900BF502080F31188A6
:1045B000BFF34F8FBFF36F8F00BF00BFFEE7022E28
:1045C00002D1E06B012801D1012000E0002050B9A8
:1045D00000BF502080F31188BFF34F8FBFF36F8F60
:1045E00000BF00BFFEE7FFF7A1FB00BF5021EFF3C4
:1045F000118081F31188BFF34F8FBFF36F8F00BF1E
:104600000546A06BE16B884201D3022E23D194F9B9
:1046100045B0324651462046FEF773FD0BF10100CE
:1046200088B9606A08B9012000E0002080B904F16F
:10463000240000F061FA58B1B8F1000F08D0012051
:10464000C8F8000004E00BF1010040B284F8450016
:104650004FF0010901E04FF0000900BF85F3118818
:1046600000BF4846BDE8F09F2DE9F74183B00546FD
:104670000E464FF000082C4654B900BF502080F37E
:104680001188BFF34F8FBFF36F8F00BF00BFFEE7EE
:104690000EB9206C08B9012000E0002050B900BF1D
:1046A000502080F31188BFF34F8FBFF36F8F00BF8F
:1046B00000BFFEE700F002F908B9059808B901202B
:1046C00000E0002050B900BF502080F31188BFF3F4
:1046D0004F8FBFF36F8F00BF00BFFEE700BFFFF734
:1046E0007FFAA76BF7B131462046FEF7F5FC781E3E
:1046F000A063206908B9012000E0002060B904F13E
:10470000100000F0F9F938B14FF080502F490860DF
:10471000BFF34F8FBFF36F8FFFF78CFA012006B006
:10472000BDE8F081059818B9FFF784FA0020F6E794
:10473000B8F1000F04D101A8FFF718FC4FF00108F1
:10474000FFF778FAFFF7AAFCFFF74AFA94F944005A
:10475000401C10B9002084F8440094F94500401C26
:1047600010B9002084F84500FFF764FA05A901A8F4
:1047700000F02EF8F0B92046FEF782FEA0B104F159
:1047800024000599FFF704FC2046FFF728F800F005
:10479000FFF90028A3D14FF080500C490860BFF307
:1047A0004F8FBFF36F8F9AE72046FFF718F800F09E
:1047B000EFF994E72046FFF712F800F0E9F92046F8
:1047C000FEF75EFE00288AD00020A8E704ED00E096
:1047D00070B505460C4655B900BF502080F31188CE
:1047E000BFF34F8FBFF36F8F00BF00BFFEE754B919
:1047F00000BF502080F31188BFF34F8FBFF36F8F3E
:1048000000BF00BFFEE7FFF7EBF9124802686868D7
:10481000131A2068401C08B9002617E00E492868C2
:104820000968884204D06868904201D801260DE0EA
:104830002068984207D92068C01A20602846FFF7F0
:1048400095FB002602E0002020600126FFF7F2F928
:10485000304670BD4C000020600000202DE9FF4F65
:1048600085B0804689461746DDE912ABB800FEF7F1
:10487000F5FF064656B15820FEF7F0FF04460CB18E
:10488000266304E03046FFF7F3F900E000247CB132
:104890000020CDE900ABCDE902403A46494640460A
:1048A000089BFEF7F2FC2046FEF764FB012501E0C1
:1048B0004FF0FF35284609B0BDE8F08F054909687B
:1048C00009B9012005E00449096809B9022000E09E
:1048D0000020704754000020700000200149086843
:1048E000704700004C0000202DE9F0414FF0000817
:1048F00044480068002877D143480068451C424876
:10490000056015BB41480068006808B9012000E057
:10491000002050B900BF502080F31188BFF34F8FA3
:10492000BFF36F8F00BF00BFFEE738480768384805
:104930000068364908603648076036480068401C01
:1049400034490860FEF79EFE00BF33480068854288
:104950003CD300BF2D480068006808B9012000E082
:10496000002020B14FF0FF302B4908602DE0274890
:104970000068C068C4686668B54202D2264806600E
:1049800023E0201DFFF7E2F8A06A18B104F1180037
:10499000FFF7DCF894F82C10012088401F490968C3
:1049A00008431E490860E16A01EB81011C4A02EBE1
:1049B0008100211DFFF708F91A49E06A0968C96AF0
:1049C0008842C7D34FF00108C4E700BF154800680C
:1049D000C06A00EB8000124951F82000012801D97B
:1049E0004FF0010805E0FFE70F480068401C0E4942
:1049F00008600E48006808B14FF001084046BDE865
:104A0000F0810000700000204C0000203C000020DD
:104A100040000020600000206800002050000020BE
:104A20000803002038000020580000205C0000200F
:104A300070B505462C460026002D55D02B48006841
:104A4000844201D1012000E0002050B900BF502075
:104A500080F31188BFF34F8FBFF36F8F00BF00BF8C
:104A6000FEE7E06C50B900BF502080F31188BFF31F
:104A70004F8FBFF36F8F00BF00BFFEE7E06C401E9B
:104A8000E064A16CE06A88422ED0E06C60BB201D1F
:104A9000FFF75CF878B9E06A00EB8000144951F840
:104AA000200040B994F82C10012088401149096871
:104AB000814310480160A06CE062E06AC0F105002B
:104AC000A06194F82C10012088400A490968084325
:104AD00008490860E16A01EB8101054A02EB8100A7
:104AE000211DFFF771F80126304670BD3800002007
:104AF000080300205000002070B50646F068C46826
:104B000054B900BF502080F31188BFF34F8FBFF31B
:104B10006F8F00BF00BFFEE704F11800FFF716F823
:104B200015480068A8B9201DFFF710F894F82C105C
:104B30000120884011490968084310490860E16A6A
:104B400001EB81010E4A02EB8100211DFFF73CF8C9
:104B500004E004F118010B48FFF736F80A49E06A4F
:104B60000968C96A884204D90125012007490860FB
:104B700000E00025284670BD700000205000002095
:104B80000803002094030020380000205C0000206F
:104B900070B5002400263648006850B900BF502088
:104BA00080F31188BFF34F8FBFF36F8F00BF00BF3B
:104BB000FEE7FFF715F82E480068401E2C490860F4
:104BC0000846006800284FD12A48006800284BD0CA
:104BD00024E02948C068C46804F11800FEF7B6FF55
:104BE000201DFEF7B3FF94F82C10012088402349C4
:104BF0000968084321490860E16A01EB8101204A04
:104C000002EB8100211DFEF7DFFF1E49E06A096803
:104C1000C96A884202D301201B490860164800680F
:104C200008B9012000E000200028D2D00CB1FEF726
:104C300029FD1648056865B100BFFFF755FE10B1A4
:104C40000120114908606D1E002DF6D100200F498A
:104C500008600D48006838B1012630070C4908602B
:104C6000BFF34F8FBFF36F8FFEF7E4FF304670BD89
:104C70007000002048000020940300205000002015
:104C800008030020380000205C00002058000020AD
:104C900004ED00E01CB50024FEF7C8F90E480068DA
:104CA00058B10E48022100234FF48272CDE9001062
:104CB0000BA10D48FFF7D2FD044654B900BF5020A8
:104CC00080F31188BFF34F8FBFF36F8F00BF00BF1A
:104CD000FEE720461CBD00007C0000208000002074
:104CE000546D722053766300C53700082DE9FE43EA
:104CF00004460D4616461F46DDF828804FF0000991
:104D000054B900BF502080F31188BFF34F8FBFF319
:104D10006F8F00BF00BFFEE71448006810B3009516
:104D200001960294062D15DAFFF7C8FD022808D176
:104D30000023424669460D480068FFF745FB81465F
:104D400010E000231A46694608480068FFF73CFB5C
:104D5000814607E000233A46694604480068FFF7A9
:104D600007FC81464846BDE8FE8300007C00002029
:104D70004FF04070E1EE100A7047E803E8030400CA
:104D80000008000000000000000200010000100008
:104D9000B04D000800000020AC000000E801000851
:104DA0005C4E0008AC000020DC5401000402000846
:104DB00000000000000000000095BA0A000000009A
:104DC00000000000010203040607080900000000BB
:104DD00000000000000000000000010203040102C6
:104DE000030406070809000000000000000000009E
:104DF00000000000000000000000000000000000B3
:104E000000000000000000000000000000000000A2
:104E10000000000000000000000000000000000092
:104E20000000000000000000000000000000000082
:104E30000000000000000000000000000000000072
:104E40000000000000000000000000000000000062
:0C4E5000AAAAAAAA0000000000000000AE
:04000005080001AD41
:00000001FF
